:020000040801F1
:1000000000060020B9120108013E0A085D3D0A08F9
:10001000C93D0A085D3D0A08953D0A08BB12010862
:10002000BB120108BB120108BB120108A5EE0C08A7
:10003000BB120108BB120108BB120108BB12010868
:10004000BB120108BB120108BB120108BB12010858
:10005000BB120108BB1201081D000D0849000D0864
:1000600075000D08A1000D08CD000D0835AD0C0878
:100070005DAD0C0889AD0C08B5AD0C08E1AD0C0800
:1000800009AE0C0835AE0C08E9AB0C08BB12010830
:10009000BB120108BB120108BB120108F9000D08D0
:1000A00065BD0C08BB120108BB120108BB12010898
:1000B000BB120108BB120108BB12010875B30C0882
:1000C00011B50C08BB120108BB120108BB120108D4
:1000D000BB12010859C30C08BB1201086DC30C0800
:1000E00061010D08BB120108BB120108BB12010817
:1000F000BB120108BB120108BB12010861AE0C085B
:10010000BB120108BB12010885FE0C08BB120108D6
:1001100081C30C0895C30C08BB120108BB1201086F
:100120008DAE0C08B5AE0C08E1AE0C080DAF0C0896
:1001300039AF0C08BB120108BB120108BB12010841
:10014000BB120108BB120108BB120108DDF50C0847
:1001500061AF0C088DAF0C08B9AF0C08BB120108D9
:10016000BB120108BB120108BB120108BB12010837
:10017000BB120108BB120108BB120108BB12010827
:10018000BB120108BB120108BB120108BB12010817
:10019000BB120108BB120108BB120108BB12010807
:1001A000BB120108BB120108BB120108BB120108F7
:1001B000BB120108BB120108BB120108BB120108E7
:1001C000BB120108BB120108BB120108BB120108D7
:1001D000BB120108BB120108BB120108BB120108C7
:1001E00085330108396C010819090208F5E802088D
:1001F000594A04080D1006085113060881360608EE
:10020000A9840608458C06088D8F0608D9130708AF
:1002100015C30708D10E080811160A089D370A08E9
:10022000ED1B0B0801EA0B0825520C082D5C0C088D
:10023000718B0C0859900C080000000000000000B1
:1002400081F0004102E000BF83F0004330B54FEA87
:1002500041044FEA430594EA050F08BF90EA020FF4
:100260001FBF54EA000C55EA020C7FEA645C7FEA87
:10027000655C00F0E2804FEA5454D4EB5555B8BFAA
:100280006D420CDD2C4480EA020281EA030382EA1B
:10029000000083EA010180EA020281EA0303362DAD
:1002A00088BF30BD11F0004F4FEA01314FF4801C80
:1002B0004CEA113102D0404261EB410113F0004F92
:1002C0004FEA03334CEA133302D0524263EB430349
:1002D00094EA050F00F0A780A4F10104D5F1200EE7
:1002E0000DDB02FA0EFC22FA05F2801841F1000142
:1002F00003FA0EF2801843FA05F359410EE0A5F116
:1003000020050EF1200E012A03FA0EFC28BF4CF046
:10031000020C43FA05F3C01851EBE37101F00045FC
:1003200007D54FF0000EDCF1000C7EEB00006EEB09
:100330000101B1F5801F1BD3B1F5001F0CD3490893
:100340005FEA30004FEA3C0C04F101044FEA4452EA
:1003500012F5800F80F09A80BCF1004F08BF5FEA71
:10036000500C50F1000041EB045141EA050130BD51
:100370005FEA4C0C404141EB0101013C28BFB1F563
:10038000801FE9D291F0000F04BF01460020B1FAAE
:1003900081F308BF2033A3F10B03B3F120020CDA81
:1003A0000C3208DD02F1140CC2F10C0201FA0CF05F
:1003B00021FA02F10CE002F11402D8BFC2F1200CC4
:1003C00001FA02F120FA0CFCDCBF41EA0C0190407A
:1003D000E41AA2BF01EB0451294330BD6FEA0404C3
:1003E0001F3C1CDA0C340EDC04F11404C4F12002AE
:1003F00020FA04F001FA02F340EA030021FA04F3C0
:1004000045EA030130BDC4F10C04C4F1200220FA16
:1004100002F001FA04F340EA0300294630BD21FA54
:1004200004F0294630BD94F0000F83F4801306BF1A
:1004300081F480110134013D4EE77FEA645C18BF0E
:100440007FEA655C29D094EA050F08BF90EA020FA5
:1004500005D054EA000C04BF1946104630BD91EA9D
:10046000030F1EBF0021002030BD5FEA545C05D1A0
:100470004000494128BF41F0004130BD14F58004DF
:100480003CBF01F5801130BD01F0004545F0FE4153
:1004900041F470014FF0000030BD7FEA645C1ABF88
:1004A000194610467FEA655C1CBF0B46024650EABF
:1004B000013406BF52EA033591EA030F41F40021EB
:1004C00030BD00BF90F0000F04BF0021704730B571
:1004D0004FF4806404F132044FF000054FF0000146
:1004E00050E700BF90F0000F04BF0021704730B507
:1004F0004FF4806404F1320410F0004548BF4042DC
:100500004FF000013EE700BF42004FEAE2014FEA30
:1005100031014FEA02701FBF12F07F4393F07F4F0B
:1005200081F06051704732F07F4208BF704793F00E
:100530007F4F04BF41F40021704730B54FF4607421
:1005400001F0004521F000411CE700BF50EA010224
:1005500008BF704730B54FF000050AE050EA0102CD
:1005600008BF704730B511F0004502D5404261EB3D
:1005700041014FF4806404F132045FEA915C3FF47E
:10058000D8AE4FF003025FEADC0C18BF03325FEA1B
:10059000DC0C18BF033202EBDC02C2F1200300FACC
:1005A00003FC20FA02F001FA03FE40EA0E0021FAF1
:1005B00002F11444BDE600BF70B54FF0FF0C4CF4DF
:1005C000E06C1CEA11541DBF1CEA135594EA0C0F91
:1005D00095EA0C0F00F0DEF82C4481EA030621EACC
:1005E0004C5123EA4C5350EA013518BF52EA033507
:1005F00041F4801143F4801338D0A0FB02CE4FF0B9
:100600000005E1FB02E506F00042E0FB03E54FF0E8
:100610000006E1FB03569CF0000F18BF4EF0010EE0
:10062000A4F1FF04B6F5007F64F5407404D25FEADC
:100630004E0E6D4146EB060642EAC62141EA55518F
:100640004FEAC52040EA5E504FEACE2EB4F1FD0CD1
:1006500088BFBCF5E06F1ED8BEF1004F08BF5FEA4F
:10066000500E50F1000041EB045170BD06F0004601
:1006700046EA010140EA020081EA0301B4EB5C04AE
:10068000C2BFD4EB0C0541EA045170BD41F48011A6
:100690004FF0000E013C00F3AB8014F1360FDEBFCB
:1006A000002001F0004170BDC4F10004203C35DAA7
:1006B0000C341BDC04F11404C4F1200500FA05F32A
:1006C00020FA04F001FA05F240EA020001F00042CB
:1006D00021F0004110EBD37021FA04F642EB060141
:1006E0005EEA430E08BF20EAD37070BDC4F10C046B
:1006F000C4F1200500FA04F320FA05F001FA04F22F
:1007000040EA020001F0004110EBD37041F100011A
:100710005EEA430E08BF20EAD37070BDC4F1200525
:1007200000FA05F24EEA020E20FA04F301FA05F28D
:1007300043EA020321FA04F001F0004121FA04F235
:1007400020EA020000EBD3705EEA430E08BF20EA05
:10075000D37070BD94F0000F0FD101F0004640003F
:1007600041EB010111F4801F08BF013CF7D041EAC1
:10077000060195F0000F18BF704703F000465200C5
:1007800043EB030313F4801F08BF013DF7D043EA96
:100790000603704794EA0C0F0CEA135518BF95EA4C
:1007A0000C0F0CD050EA410618BF52EA4306D1D1D3
:1007B00081EA030101F000414FF0000070BD50EAF2
:1007C000410606BF1046194652EA430619D094EA7C
:1007D0000C0F02D150EA013613D195EA0C0F05D166
:1007E00052EA03361CBF104619460AD181EA0301BA
:1007F00001F0004141F0FE4141F470014FF0000072
:1008000070BD41F0FE4141F4780170BD70B54FF00C
:10081000FF0C4CF4E06C1CEA11541DBF1CEA13558C
:1008200094EA0C0F95EA0C0F00F0A7F8A4EB05046E
:1008300081EA030E52EA03354FEA013100F0888065
:100840004FEA03334FF0805545EA131343EA12632E
:100850004FEA022245EA111545EA10654FEA0026E3
:100860000EF000419D4208BF964244F1FD0404F59C
:10087000407402D25B084FEA3202B61A65EB0305F8
:100880005B084FEA32024FF480104FF4002CB6EBB5
:10089000020E75EB030E22BFB61A754640EA0C0035
:1008A0005B084FEA3202B6EB020E75EB030E22BF75
:1008B000B61A754640EA5C005B084FEA3202B6EBB6
:1008C000020E75EB030E22BFB61A754640EA9C0075
:1008D0005B084FEA3202B6EB020E75EB030E22BF45
:1008E000B61A754640EADC0055EA060E18D04FEA03
:1008F000051545EA16754FEA06164FEAC30343EAA3
:1009000052734FEAC2025FEA1C1CC0D111F4801F6F
:100910000BD141EA00014FF000004FF0004CB6E768
:1009200011F4801F04BF01430020B4F1FD0C88BF07
:10093000BCF5E06F3FF6AFAEB5EB030C04BFB6EB12
:10094000020C5FEA500C50F1000041EB045170BD05
:100950000EF0004E4EEA113114EB5C04C2BFD4EB32
:100960000C0541EA045170BD41F480114FF0000EB6
:10097000013C90E645EA060E8DE60CEA135594EA32
:100980000C0F08BF95EA0C0F3FF43BAF94EA0C0F35
:100990000AD150EA01347FF434AF95EA0C0F7FF4AA
:1009A00025AF104619462CE795EA0C0F06D152EAFE
:1009B00003353FF4FDAE1046194622E750EA4106E2
:1009C00018BF52EA43067FF4C5AE50EA41047FF4F3
:1009D0000DAF52EA43057FF4EBAE12E74FF0FF3C58
:1009E00006E000BF4FF0010C02E000BF4FF0010C29
:1009F0004DF804CD4FEA410C7FEA6C5C4FEA430CA2
:100A000018BF7FEA6C5C1BD001B050EA410C0CBFF0
:100A100052EA430C91EA030F02BF90EA020F002052
:100A2000704710F1000F91EA030F58BF994208BFB9
:100A300090422CBFD8176FEAE37040F00100704776
:100A40004FEA410C7FEA6C5C02D150EA013C07D1CD
:100A50004FEA430C7FEA6C5CD6D152EA033CD3D018
:100A60005DF8040B704700BF8446104662468C4612
:100A70001946634600E000BF01B5FFF7B7FF002845
:100A800048BF10F1000F01BD4DF808EDFFF7F4FF6E
:100A90000CBF012000205DF808FB00BF4DF808EDF9
:100AA000FFF7EAFF34BF012000205DF808FB00BF1C
:100AB0004DF808EDFFF7E0FF94BF012000205DF83E
:100AC00008FB00BF4DF808EDFFF7CEFF94BF0120F3
:100AD00000205DF808FB00BF4DF808EDFFF7C4FFEC
:100AE00034BF012000205DF808FB00BF4FEA410C35
:100AF0007FEA6C5C02D150EA013C0AD14FEA430C18
:100B00007FEA6C5C02D152EA033C02D14FF0000054
:100B100070474FF0010070474FEA410212F5001292
:100B200015D211D56FF47873B3EB625212D94FEA34
:100B3000C12343F0004343EA505311F0004F23FA1E
:100B400002F018BF404270474FF00000704750EA73
:100B5000013005D111F0004008BF6FF00040704730
:100B60004FF00000704700BF4A0011D212F500128A
:100B700011D20DD56FF47873B3EB62520ED44FEAF5
:100B8000C12343F0004343EA505323FA02F0704775
:100B90004FF00000704750EA013002D14FF0FF30B3
:100BA00070474FF0000070474FEA4102B2F1E04356
:100BB00024BFB3F5001CDCF1FE5C0DD901F0004C44
:100BC0004FEAC0024CEA5070B2F1004F40EB830094
:100BD00008BF20F00100704711F0804F21D113F1C0
:100BE0003872BCBF01F00040704741F480114FEAF9
:100BF0005252C2F11802C2F1200C10FA0CF320FA82
:100C000002F018BF40F001004FEAC1234FEAD3239E
:100C100003FA0CFC40EA0C0023FA02F34FEA430308
:100C2000CCE77FEA625307D150EA01331EBF4FF091
:100C3000FE4040F44000704701F0004040F0FE40AC
:100C400040F40000704700BF80F0004002E000BFA9
:100C500081F0004142001FBF5FEA410392EA030FA7
:100C60007FEA226C7FEA236C6AD04FEA1262D2EBF1
:100C70001363C1BFD218414048404140B8BF5B42F6
:100C8000192B88BF704710F0004F40F4000020F08F
:100C90007F4018BF404211F0004F41F4000121F0A5
:100CA0007F4118BF494292EA030F3FD0A2F10102EF
:100CB00041FA03FC10EB0C00C3F1200301FA03F12D
:100CC00000F0004302D5494260EB4000B0F5000F50
:100CD00013D3B0F1807F06D340084FEA310102F10F
:100CE0000102FE2A51D2B1F1004F40EBC25008BFC1
:100CF00020F0010040EA03007047490040EB00008B
:100D0000013A28BFB0F5000FEDD2B0FA80FCACF18B
:100D1000080CB2EB0C0200FA0CF0AABF00EBC250B8
:100D200052421843BCBFD0401843704792F0000FA6
:100D300081F4000106BF80F400000132013BB5E7F9
:100D40004FEA41037FEA226C18BF7FEA236C21D06F
:100D500092EA030F04D092F0000F08BF08467047D4
:100D600090EA010F1CBF0020704712F07F4F04D1A2
:100D7000400028BF40F00040704712F100723CBFB5
:100D800000F50000704700F0004343F0FE4040F4DF
:100D9000000070477FEA226216BF08467FEA23639D
:100DA0000146420206BF5FEA412390EA010F40F488
:100DB000800070474FF0000304E000BF10F00043D4
:100DC00048BF40425FEA000C08BF704743F09643BB
:100DD00001464FF000001CE050EA010208BF7047D6
:100DE0004FF000030AE000BF50EA010208BF70475D
:100DF00011F0004302D5404261EB41015FEA010C72
:100E000002BF84460146002043F0B64308BFA3F169
:100E10008053A3F50003BCFA8CF2083AA3EBC2534B
:100E200010DB01FA02FC634400FA02FCC2F120026A
:100E3000BCF1004F20FA02F243EB020008BF20F0A1
:100E40000100704702F1200201FA02FCC2F1200207
:100E500050EA4C0021FA02F243EB020008BF20EAFC
:100E6000DC7070477BB972B90029BEBF00204FF01B
:100E7000004106E008BF00281CBF6FF000414FF0A2
:100E8000FF3000F017BAADF1080C6DE904CE00296F
:100E900009DB002B1ADB00F0A5F8DDF804E0DDE942
:100EA000022304B07047404261EB4101002B1BDB81
:100EB00000F098F8DDF804E0DDE9022304B04042D8
:100EC00061EB4101524263EB43037047524263EBD3
:100ED000430300F087F8DDF804E0DDE9022304B005
:100EE000404261EB41017047524263EB430300F023
:100EF00079F8DDF804E0DDE9022304B0524263EB47
:100F00004303704753B94AB9002908BF00281CBFE2
:100F10004FF0FF314FF0FF3000F0CCB9ADF1080CCD
:100F20006DE904CE00F05EF8DDF804E0DDE90223AF
:100F300004B07047430803F05533C01A830803F028
:100F4000333300F03330184400EB101000F00F3052
:100F500000EB002000EB0040000E704780EA1040DC
:100F600080EA102080EA101046F6961300F00F0079
:100F700043FA00F000F00100704700BF07EE900A4E
:100F8000F5EEC07AF1EE10FA01D400F00BB8F1EEF4
:100F9000677A08B517EE900A00F004F8404261EB5A
:100FA000410108BDD0B5FFF7AFFA0C4B0022064651
:100FB0000F46FFF701FBFFF7D7FD0446FFF782FA64
:100FC000074B0022FFF7F8FA02460B463046394637
:100FD000FFF73AF9FFF7C8FD2146D0BD0000F03D0C
:100FE0000000F0412DE9F047089D04468E46002B95
:100FF0004DD18A42944669D9B2FA82F252B101FACD
:1010000002F3C2F1200120FA01F10CFA02FC41EADC
:10101000030E94404FEA1C48210CBEFBF8F61FFA61
:101020008CF708FB16E341EA034306FB07F19942FC
:101030000AD91CEB030306F1FF3080F01F819942AF
:1010400040F21C81023E63445B1AA4B2B3FBF8F089
:1010500008FB103344EA034400FB07F7A7420AD910
:101060001CEB040400F1FF3380F00A81A74240F238
:1010700007816444023840EA0640E41B00261DB1A3
:10108000D4400023C5E900433146BDE8F0878B42D8
:1010900009D9002D00F0EF800026C5E90001304697
:1010A0003146BDE8F087B3FA83F6002E4AD18B4271
:1010B00002D3824200F2F980841A61EB030301201B
:1010C0009E46002DE0D0C5E9004EDDE702B9FFDE07
:1010D000B2FA82F2002A40F09280A1EB0C014FEAB2
:1010E0001C471FFA8CFE0126200CB1FBF7F307FB0F
:1010F000131140EA01410EFB03F0884208D91CEBB2
:10110000010103F1FF3802D2884200F2CB8043464E
:10111000091AA4B2B1FBF7F007FB101144EA01442D
:101120000EFB00FEA64508D91CEB040400F1FF31BC
:1011300002D2A64500F2BB800846A4EB0E0440EAAA
:1011400003409CE7C6F12007B34022FA07FC4CEAB3
:10115000030C20FA07F401FA06F31C43F9404FEAA6
:101160001C4900FA06F3B1FBF9F8200C1FFA8CFEBB
:1011700009FB181140EA014108FB0EF0884202FA0F
:1011800006F20BD91CEB010108F1FF3A80F08880D0
:10119000884240F28580A8F102086144091AA4B28D
:1011A000B1FBF9F009FB101144EA014100FB0EFE0E
:1011B0008E4508D91CEB010100F1FF346CD28E453D
:1011C0006AD90238614440EA0840A0FB0294A1EBCE
:1011D0000E01A142C846A64656D353D05DB1B3EB2B
:1011E000080261EB0E0101FA07F722FA06F3F1405B
:1011F0001F43C5E9007100263146BDE8F087C2F102
:101200002003D8400CFA02FC21FA03F39140014379
:101210004FEA1C471FFA8CFEB3FBF7F007FB1036B2
:101220000B0C43EA064300FB0EF69E4204FA02F45E
:1012300008D91CEB030300F1FF382FD29E422DD9B1
:10124000023863449B1B89B2B3FBF7F607FB1633E6
:1012500041EA034106FB0EF38B4208D91CEB010166
:1012600006F1FF3816D28B4214D9023E6144C91AE6
:1012700046EA004638E72E46284605E70646E3E6F6
:101280001846F8E64B45A9D2B9EB020864EB0C0E00
:101290000138A3E74646EAE7204694E74046D1E70F
:1012A000D0467BE7023B614432E7304609E76444BD
:1012B000023842E7704700BF02E000F000F8FEE7A6
:1012C00072B63A4880F30888394880F3098839486B
:1012D0004EF60851CEF20001086040F20000CCF258
:1012E00000004EF63471CEF200010860BFF34F8F5C
:1012F000BFF36F8F40F20000C0F2F0004EF688514D
:10130000CEF200010860BFF34F8FBFF36F8F4FF035
:101310000000E1EE100A4EF63C71CEF200010860CA
:10132000062080F31488BFF36F8FBDF03BFEBDF045
:1013300017FEBEF003FD4FF055301F491B4A914286
:101340003CBF41F8040BFAE71C49194A91423CBFE3
:1013500041F8040BFAE71A491A4A1B4B9A423EBF5E
:1013600051F8040B42F8040BF8E700201749184A1B
:1013700091423CBF41F8040BFAE7BDF0F5FDBEF029
:1013800031FD144C144DAC4203DA54F8041B884769
:10139000F9E701F0E7FF114C114DAC4203DA54F8C4
:1013A000041B8847F9E7BDF0DDBD00000006002002
:1013B000002200200000010800000020000600209C
:1013C000A8CD0F0800220020D0290020D02900201D
:1013D000E8310120E0010108380201083802010863
:1013E000380201082DE9F04F2DED108AC1F80CD01C
:1013F000C3689D46BDEC108ABDE8F08F002383F3DF
:1014000011882846A0470020BCF0E4FDFEE7BCF0B0
:1014100085FC00DFFEE7000001F0FF01102A2BDB56
:1014200010F0070F08D010F8013B013A8B422DD085
:1014300010F0070F42B3F6D1F0B441EA012141EABE
:10144000014122F007047FF000070023F0E8025674
:10145000083C85EA010586EA010685FA47F5A3FA04
:1014600087F586FA47F6A5FA87F68EB9EED1F0BC75
:1014700001F0FF0102F0070232B110F8013B013A1E
:1014800083EA010313B1F8D1002070470138704797
:10149000002D06BF35460338073815F0010F07D178
:1014A000013015F4807F02BF013015F4C03F0130D8
:1014B000F0BC0138704700BF10F8012B11F8013B58
:1014C000012A28BF9A42F7D0D01A7047034613F872
:1014D000012B002AFBD1181A0138704738B50022B9
:1014E000002304460D46FFF7D9FA28B920462946BD
:1014F000BDE8384000F00AB8204605F1004100F090
:1015000005F8404261EB410138BD00BFD0B50C4B3E
:10151000002206460F46FFF74FF8FFF725FB04466B
:10152000FEF7D0FF074B0022FFF746F802460B46B6
:1015300030463946FEF788FEFFF716FB2146D0BD40
:101540000000F03D0000F04101207047074A137889
:101550000133DBB21D2B98BF137003684FF00001FD
:1015600088BF11709B6888BF0121184700220020A6
:101570002DE9F0418368012B90B004460D4602D05E
:10158000990640F1AC80574E96F9523DBBB106F535
:101590008052B6F9543DD2F89429B2F90A1003F1F9
:1015A0000A02914203DD40F28D32934207DC4E4B3A
:1015B0002A462021204686F071FA00208CE096F918
:1015C000413D022B05D1494B2A462021204686F079
:1015D00065FAB6F8143DA3F57A739BB241F658321A
:1015E00093420FD8424FD7F8203A06F67C5292ED3C
:1015F000007AD3ED097AB4EEE77AF1EE10FA03DD62
:101600003C4BD5E73C4BD3E7A7F5945292ED007ADB
:10161000D3ED0A7AB4EEE77AF1EE10FAF0DCB6F91F
:101620004E3D002B01DC354BC2E796F8142F0D2AF6
:1016300004D84FF42153D340DA0708D4DFF8F08000
:10164000D8F8E00D81F02CFE18B92D4BB0E72D4BEA
:10165000AEE72D4810F0B4FC012828D1D7F8280AAD
:101660007FF01AF901280BD002281ED0F8B9274BB9
:101670000093274B2A462021204686F00FFA9CE74C
:1016800098F84C3ADB070ED5224819214FF0DCFFC1
:1016900048B12048D6F82C6D19214FF0FFFF864243
:1016A00005DD1D4BE4E71D4BE2E71D4BE0E703AE14
:1016B0001C49D7F8240A322332467DF07BFB10B94F
:1016C000194B0096D6E71949D7F8200A322332463B
:1016D0007BF024FD0028F3D010B0BDE8F08101209C
:1016E000FAE700BFD8390020886B0D089B6B0D0806
:1016F000D8590020D36B0D08C36B0D08ED6B0D0896
:10170000226C0D08026C0D08F06D00205D6C0D0858
:10171000386C0D08F03600207C6C0D086D6C0D08DF
:10172000926C0D08A36C0D08A76C0D08B96C0D0820
:10173000D849002010B5074BD3F8E03D93F86F402F
:1017400024B9054A86F0C4FB204610BD202186F04E
:1017500095F9F9E7D8490020C06C0D0870B58EB036
:1017600005460E460A48322201A96BF0BFFB04462B
:1017700040B99DF9043043B9064B074A3146284623
:1017800086F0A6FB20460EB070BD01ABF5E700BFAA
:10179000C4510020E06C0D08FE6C0D0807B504482C
:1017A00080F0C8FE00F0010003B05DF804FB00BF4C
:1017B000DC6300202DE9F043DFF864910446D9F89A
:1017C000C00D036899B01B690D469847804617F015
:1017D00033FC002107462E220CA80B91C1F00AFB16
:1017E00032230BAA4146384616F0F0FE064648B9A9
:1017F0003F4A0BAB2946204686F06AFB304619B0BB
:10180000BDE8F0833B486BF049F8B8F1000F0BD00E
:10181000A9F5005014F042FD80B9374A2946204608
:1018200086F056FB0026E9E710F0060FE6D0A9F592
:10183000005014F033FD08B9304AEFE703A93846E9
:1018400016F02AFF28B19DF80D305B0601D52C4A11
:10185000E4E7DFF8D080D8ED007AF5EEC07AF1EE5B
:1018600010FA4FF000032CDD089309930A930DF151
:10187000200907AB019305AA06AB04A9CDF8009097
:10188000384617F021FA484630F072FFD8ED007A5A
:10189000B4EEE70AF1EE10FA01DB1A4ABEE79DED5D
:1018A000057AF4EEC77AF1EE10FA01D8164AB5E7D8
:1018B0009DED047AF4EEC77AF1EE10FA01D8134ADE
:1018C000ACE707F53C71124805F074FB074608B118
:1018D000104AA3E710490E4805F06CFB00288DD094
:1018E0000E4A2946204686F0F3FA3E4686E700BFB8
:1018F000F86C0D08F0640020016D0D08186D0D08DE
:101900003E6D0D084C6D0D08616D0D08776D0D086D
:10191000D82900208D6D0D08CC630020AA6D0D081C
:10192000D84900204847002008B5064B93F8D93D18
:101930009B0704D5044A86F0CBFA002008BD01209D
:10194000FCE700BFD8490020CC6D0D0870B5836856
:1019500013F0210F8EB005460E4603D10124204618
:101960000EB070BD87F05AFA04460028F6D0002168
:101970002E2202A80191C1F03DFA2046322201A98F
:1019800087F014FA04460028E8D1034A01AB314637
:10199000284686F09DFAE2E7FE6C0D0870B50C4C07
:1019A0000546D4F8C00D03685B690E46984710B130
:1019B0000124204670BDA4F5005014F081FC0446BB
:1019C0000028F5D1034A3146284686F081FAF0E72F
:1019D000D8490020DC6D0D082DE9704A2E4DD5F850
:1019E000E02D92F86D4083460E4684B95EF056F8BD
:1019F00020215EF08DFF68B15EF050F81F215EF08F
:101A000087FF38B1254A3146584686F061FA2046AC
:101A1000BDE8708A95F8B62D02F01402142A04D19C
:101A20001F4A3146584686F053FADBF808203AB987
:101A3000DBF8002031465846126BBDE8704A10476B
:101A400031465846FFF794FD314681465846FFF728
:101A500071FE09EA0000C4B231465846FFF77EFE27
:101A6000314604405846FFF75FFF31460440584670
:101A7000FFF76CFF314604405846FFF78FFF3146B1
:101A80000440584686F0C2FA31460440584686F073
:101A9000ABFF0440BBE700BFD8490020F06D0D0844
:101AA0000A6E0D0808B5FFF797FF054A92F8B41DB6
:101AB00060F3041182F8B41D024A907108BD00BFA2
:101AC000D8490020A5730020F7B505460E4685F0DD
:101AD000A1FF044658B3AB68012B01D0990726D566
:101AE000144880F027FDC205C0F30723C0F3002788
:101AF0001DD49B071BD50F4880F02AFD0E4B03F623
:101B0000C813D3ED007AF8EEE77A30EE670ADFED1E
:101B10000B7AB0EEC00AB4EEE70AF1EE10FA06DD79
:101B2000074B32460221284685F0B8FF3C46204646
:101B300003B0F0BDDC630020D85900200000C8428B
:101B4000246E0D08F8B504460F4686F065F9A368C3
:101B5000012B054601D0DB060BD52046FFF71EFE04
:101B6000064630B9044B3A461021204685F096FFD0
:101B700035462846F8BD00BF386E0D0813B504463B
:101B8000019185F047FF78B1A368019A012B01D03C
:101B90001B0609D5054B93F8C9322BB12046044BDF
:101BA000802185F07BFF002002B010BDD8590020B5
:101BB0004C6E0D08F0B5114C85B0D4F88C390093FB
:101BC000D4F890390193D4F8943902936A46D4F842
:101BD0009839039306460F4686F07CFE3946054643
:101BE000304685F083FF94F8B43D284060F3C3038A
:101BF000C3F3C00084F8B43D05B0F0BDD84900205F
:101C00002DE9F84305462348DFF89890224E0F4609
:101C10006AF044FE8046D9F8C00D03681B699847F6
:101C2000044630B918F0060F03D1D9F8F03D022B65
:101C300008D13946284686F017F8044610B9002323
:101C4000F37109E039462846FFF7B4FD0346002842
:101C5000F5D024B90122F2711846BDE8F883AA68CC
:101C6000012A01D01207F5D50C4A92F8C813A82012
:101C700000FB012102F58052B1F8EE11B2F9422DBC
:101C80009142E7DD064B3A460821284685F006FFDB
:101C9000D5E700BFF0640020A5730020D8290020FC
:101CA000606E0D08D84900202DE9F3410F46044627
:101CB00017F0C2F9804616F065FC054628B95F4A60
:101CC0000121204686F004F91DE05D4ED6F8C00DD6
:101CD000036839469B699847054608B9594AEFE7B2
:101CE00001212046FFF726FD002800F0A58096F888
:101CF000B63D03F01403142B09D1534A01212046A9
:101D000086F0E6F80025284602B0BDE8F0814F4B8A
:101D10001D780DB14E4AF1E7A368002B00F08C80CE
:101D2000012B01D0DA0622D5D8ED9B7A98ED9A0ADC
:101D300020EE270ABEF064FDDFED467A464B20EE2A
:101D4000270AB3F9143DDFED457A20EE270A07EEA6
:101D5000903AF8EEE77AB4EEE70AF1EE10FA06DD13
:101D60003F4B01221021204685F098FECBE7A36867
:101D7000012B01D05B0638D5374B93F9522D3AB180
:101D8000D6F89419B3F9542DB1F906309A4215DCFE
:101D9000012F1CD0D6F894393248B3F9083000EE40
:101DA000103AB8EEC00A00F045FBB5EEC00AF1EEFD
:101DB00010FA25DD2C4B00932C4B02E02A4B0093AC
:101DC0002B4B01224021204685F068FE9BE7D6F888
:101DD000C00D03681B689847042806D0D6F8C00DCC
:101DE00003681B6898471428D4D1224B1B68586D90
:101DF00003681B6A98470128014616D11E4A60E70E
:101E0000D6F8C00D03685B69984730B1D6F89439AD
:101E1000B3F90830002BE8DDCCE7D6F8C00D036835
:101E20001B6898470B28E0D1F0E73946204602B0FE
:101E3000BDE8F04186F048BB054664E7706E0D08CA
:101E4000D8490020816E0D080A6E0D08747D0020AF
:101E50000EE10D08E02E6542D83900200000C8428E
:101E6000926E0D08D8290020AC6E0D08B56E0D08D5
:101E70009A6E0D0800720020C16E0D0870B50546FF
:101E80000E46FFF797FC084B0446D87131462846AA
:101E9000FFF784FD31460028284608BF002486F05D
:101EA0006DFB204070BD00BFA57300202DE9F041FF
:101EB000524F3B78002B40F09E80514CD4F8E05DAF
:101EC00095F86D5001263E701DB13B702846BDE867
:101ED000F08186F029FE054630B94A4A38701378F9
:101EE00043F001031370F1E753F0F2FC314652F076
:101EF0001FFFA4F5005006F0A1FF434B1E710B26F7
:101F000049F094FA013E49F02FFA16F0FF06F7D196
:101F10003E4800F015FE17F08FF8D0F8FC21C4F809
:101F2000082E90F80033DA0753D416F0BFFD53F0B3
:101F3000CFFC3C2153F01EFC04F6CC5300221A6067
:101F400000213248324E00F08FFE304814F0A6F9DE
:101F50000146304884F01EFA2F4B1B68586D036809
:101F600001211B68984796F8283C6FF3410386F8D7
:101F7000283CA6F5405013F06FFC0121D4F8E00D89
:101F800082F02CF953F0A4FC8046D4F8C00D03680D
:101F90001B689847A6F50053014693F8002D40466C
:101FA00053F08CF8A6F5405006F03AFF50F05EFD75
:101FB00050F0FAF800233B7091F058FFB4F8B63DAA
:101FC000C6F8340A23F4087343F02003A4F8B63D9E
:101FD0007CE79B07B4D431460C4805F08DF80F48D8
:101FE00080F0B6FADFED0E7A20EE270A04F6CC5325
:101FF00083ED000AA4E7002568E700BFD029002090
:10200000D8490020C4730020A5730020D8290020DF
:10201000D85900205450002000720020DC630020BA
:102020000AD7233C2DE9F043374DD5F8E03D93F82E
:102030006D3087B0002B64D052B1012908D195F9D9
:10204000B43D002B04DB0024204607B0BDE8F0833C
:1020500086F006FE04460028F5D016F0EDFF074690
:102060001FF050FF8046384615F05CFFD8B198F954
:102070002430022B17D100264FF00009F1B203AA39
:1020800038460191CDF80C90CDF81090CDF8149011
:1020900016F070FB019918B103AA40461FF08CFBA3
:1020A0000136032EEAD1194BD5F8C00D984224D140
:1020B0000BF0A4F81648012107F0C2F814480121DA
:1020C00006F0FCFF0021D5F8E00D82F087F81148FA
:1020D00032F064FA53F0FCFB002152F029FE0E4B63
:1020E0001B68586D036800211B68984795F8B63D3A
:1020F0006FF3451385F8B63DA6E718460BF082F856
:10210000D8E70124A0E700BFD84900208C6900204F
:10211000D82900201C6800200072002001486AF0C5
:1021200085BC00BFF064002008B500F5005090F8B1
:10213000B43DC3F340128A420BD061F3451380F8DB
:10214000B43D31B153F0C4FBBDE808400F2153F05A
:1021500011BB08BD70B500F500560546D6F8F03D38
:102160008B420C4612D0012911D0022916D059B940
:1021700053F0AEFB1B2153F0FDFA0D4A05F52E502E
:102180000621243055F03CF8C6F8F04D70BD53F0F0
:102190009FFB1A2153F0EEFA064AEFE7012100F007
:1021A00063FD53F095FB1D2153F0E4FA024AE5E785
:1021B000186F0D082D6F0D08286F0D0810B500F56C
:1021C00000520C4692F8D93D03F00101A14209D01A
:1021D00064F3000382F8D93DDB0704D406F0C6FAA5
:1021E000024B9C7210BD06F075FCF9E7A573002048
:1021F00000F5005090F8D93D61F3410380F8D93DD6
:10220000014B1973704700BFA573002010B5044639
:102210005DF044FC20215EF07BFB04F500530038A8
:1022200093F8B62D18BF012060F3820283F8B62D13
:1022300010BD000070B52DED028B00F50055044671
:10224000D5F8E03D93F86D30002B70D095F9B43D92
:10225000002B6CDB00F5405696F8703D002B66D1E4
:10226000D5F8C00D03685B69984700285FD1314BF2
:10227000D3F8C00D03681B6898470B2857D0D6F8D1
:10228000243A9FED2D7AD3ED957AF0EEE77AF4EECD
:10229000C77AF1EE10FA4AD5D5F8E00D383054F08F
:1022A000EBFA0346DFED250A93ED000A9620B7EE20
:1022B000001A2CF0B3FBB5EEC00AF1EE10FA36DDD1
:1022C00004F56850043080F04FF9DFED1D7AB0EE70
:1022D000C00AB4EEE70AF1EE10FA28D5D6F8200AC3
:1022E00004F580540368D4EDE37ADB6FB8EEE78A37
:1022F000984738EE400ABDEEC00A10EE103A002BA7
:10230000B8BF5B42B3F5FA7F11DAD4F8903340F2EC
:10231000E63203F2F313934209D8BDEC028BD5F8F1
:10232000E00D9FED080ABDE8704080F0EFBFBDEC06
:10233000028B70BDD849002000000034000000006E
:10234000000070420AD7233C08B500F50050D0F8D1
:10235000E00D03685B689847F6EE007A20EE270AE6
:10236000B5EEC00AF1EE10FA48BF9FED010A08BDB4
:102370000000000038B52DED028B00F540550446F5
:10238000D5F8203ADFED110A93ED2B0A04F500543D
:102390005D20B7EE001A2CF041FBD4F8E00DD5F823
:1023A000245A03685B68B0EE408A984738EE400ACA
:1023B000BDEC028BDFED067A05F5A075284620EE10
:1023C000270ABDE8384070F06BBA00BF000000007B
:1023D00000007A4400F5805000F5816300F214405B
:1023E000D3ED005AD2ED007AD0ED006A91ED006A8B
:1023F00026EEE77A67EEA57AA6EE257AE6EE267A4D
:1024000081ED007AC2ED007A7047000000F50053BC
:10241000B3F94C3743B900F58050B0F94E0D0028A0
:10242000B8BF404280B2704783EAE370A0EBE3702C
:10243000F8E7000030B52DED028B00F5005383B0B6
:1024400093F8D91D11F00101044605D09FED2C0A27
:1024500003B0BDEC028B30BD93F8B53D01915B0735
:10246000F4D5DFED288ADFED260AB0EE681A3A20AF
:102470002CF0D4FA04F580550199B5F9560D4FF4B6
:10248000C872B0EE408A2CF007FBA5F8560D204626
:1024900013F006FBB5F9563D07EE900AB8EEE77A61
:1024A00007EE903AF8EEE77A77EE676AB4EEE68ADE
:1024B000F1EE10FA0DD52046FFF7A8FF07EE900ABF
:1024C00038EE668AB8EEE70A20EE088A88EE260A19
:1024D000BEE777EE877AB4EEE78AF1EE10FAB5DD63
:1024E000B5F94E3D00EE103A38EE678AB8EEC00AF4
:1024F00078EEE77A20EE088A88EE270AA8E700BF80
:102500000000000000007A4400207047002070475F
:102510007047000000F50050D0F8C00D03681B683C
:1025200018470000034808602E21117008221A6025
:10253000704700BF24740D0810B500F500500C461C
:10254000D0F8C00D03685B6D984707EE900A9FEDC9
:10255000057AF8EE677A012067EE877AC4ED007A93
:1025600010BD00BF0AD7233C10B500F500500C4643
:10257000D0F8C00D03681B6D984707EE900A9FEDD9
:10258000057AF8EEE77A012067EE877AC4ED007AE3
:1025900010BD00BF0AD7233C10B500F500500C4613
:1025A000D0F8C00D03689B6D9847DFED047A20EEEC
:1025B000270A012084ED000A10BD00BF0AD7233C82
:1025C00003681B6C1847000071F082BD61F016BBF8
:1025D00086F008BC67F0E2BF66F032B81CF0E4BBDE
:1025E0005FF034B950F032B92AF06AB952F00CBD3C
:1025F0001AF03EBE5FF0A4BD5CF0E2BE5AF0DCBB58
:1026000012F0BABE13F0F8BB06F0B0BF06F0F0B897
:1026100005F05CBE05F078BD48F0A6BE13F032B8F8
:1026200050306AF089B8000019F0EAB862F0C0BE14
:1026300068F0BEBB10F014BCFFF7FCBD12F0D8BFB1
:1026400084F0BABA13F08CBA03F094BC12F05ABFFB
:1026500012F0D8BE5DF0A2B94AF0DCBD22F06ABF2C
:1026600006F0C0BA0AF0D4B90AF02ABB0AF0BEBA22
:1026700038B5194B036000F500530446D3F8480DF4
:10268000164AC3F8A42B08B11CF046F9144B23607A
:1026900004F5805393F8AC2B42B9D3F8A85B2DB165
:1026A000284628F0C9FF28461CF030F904F586506A
:1026B00077F068FE04F6C8705FF062FB094BC4F85F
:1026C000203904F5286053F07DFE04F6482053F0CD
:1026D00079FE204638BD00BFCC770D084C950E081A
:1026E00058790E08E4320E0873B5424B044640F8A0
:1026F000043B61F099FB04F110001AF005FA3E4B1F
:102700000193009402AB13E9060004F160004FF05E
:1027100075FE04F5887020F0D7FE04F58E6018F081
:10272000E5FC04F2C4501EF063FE04F5126029F0CB
:102730007DFF04F6484061F049F904F618504EF068
:1027400053FE04F6C8705FF003FB04F580500430BC
:102750001AF0BCFE04F5865077F000FE04F58650B2
:10276000183050F035FA04F5895004F580560C30D5
:1027700062F0FCFC0025214A86F8345104F58953A7
:1027800004F58A5014330430136048F097FC04F5C4
:102790008C502946183015F075F804F5BA5070F0D1
:1027A0009DFA04F5BA500C3070F0A6FF04F5D15034
:1027B00075F022F904F5D950183074F0F1F904F5E8
:1027C000DA50183077F0AEF904F5DD50183014F017
:1027D00069FD86F8005D0A4D2B6813B1094891F038
:1027E00013FB204608494EF05DF820462C6002B0ED
:1027F00070BD00BF58790E08C12501084482002031
:10280000847400203C6F0D08C4780E0810B513F0D6
:10281000D1F85DF043F90368BDE810405B681847E4
:10282000FFF7F4BF10B5044606F060FC204613F035
:102830005FFD204604F02EFA2046BDE8104004F06B
:1028400097BB0000FFF7EEBF70B500F538550C35AB
:10285000044628461AF08CF81FF054FB90F92130FA
:1028600093B390F854337BB304F5005304F2C45689
:10287000D3F8E00D383053F0FFFF0346DFED130AC5
:1028800093ED000A9620B7EE001A2CF0C7F894F9E1
:102890000036012B284608BF86ED130A002119F0E7
:1028A00065FEDFED0B7A04F5036494ED287A20EEE3
:1028B000270ADFED087AA7EE270A304684ED280ABA
:1028C000BDE870401FF004B870BD00BF00000000FC
:1028D000CDCCCC3D6666663FFFF7B6BF10B5012193
:1028E000044613F041FD58B1064BD3F8C00D036800
:1028F0009B6A984720B92046BDE8104002F048BCCA
:1029000010BD00BFD8490020FFF7E8BF38B502214D
:10291000044613F029FD70B10121204613F024FD77
:1029200048B94E4BD3F8C00D03689B6A984710B95D
:10293000204602F02DFC0221204613F015FD002850
:1029400068D0204602F0AEFC4FF40031204613F070
:102950000BFD30B104F50053D3F8E00D03689B6B19
:1029600098474021204613F0FFFC58B104F5265546
:102970001C35284651F0B6F894F9C83F13B12846E3
:1029800051F0CCF94FF48061204613F0EDFC20B1FA
:1029900004F526501C3051F03DF92021204613F05B
:1029A000E3FC68B104F50055D5F8C00D03681B6958
:1029B0009847B0B304F54053D3F8240A7BF0A8FA43
:1029C0008021204613F0D0FC002837D02AF092FF57
:1029D00029F0EAFC1021204613F0C6FC68B104F58A
:1029E0004053D3F8200A78F02BFB04F5F25104F59C
:1029F000265004311C3051F065FC4FF6FF71204623
:102A000013F0B2FC48B304F51C503030BDE8384038
:102A100086F0F6B90121204613F0A6FC002890D1DB
:102A200092E720460EF044F80028C3D1D5F8C00D37
:102A300003685B6998470028BCD0C1E74FF4802148
:102A4000204613F091FC0028C0D14FF4002120460D
:102A500013F08AFC0028B9D1BCE738BDD849002062
:102A6000FFF754BF10B50121044613F07DFC10B1EF
:102A7000204602F017FC8021204613F075FC28B197
:102A80002AF038FFBDE8104029F070BC10BD0000EE
:102A9000FFF7E8BF10B5044606F07CF9204605F0C4
:102AA000BBFF204606F036FA204614F041FA2046D5
:102AB000BDE8104004F0CAB8FFF7ECBF70B54FF6A0
:102AC000FF71044613F050FC04F5005528B1D5F809
:102AD000B42D0721204602F017FC04F52C500430D9
:102AE000FEF734FDD5F8E03D93F86D30B3B904F549
:102AF0008C50183016F0A2FB2046FFF787FBD5F864
:102B0000E00D04F58053026893F8141F566993F89A
:102B10006A2DB047D5F8E00D80F0D0FB5EF056F995
:102B2000204614F003FA95F8B43D034ADB43C3F39F
:102B3000C013537170BD00BFA5730020FFF7BEBF67
:102B40002DE9F04100F5805600F5005506F581634A
:102B500005F6F4581B68C8F8003006F2144305F671
:102B6000F8571B683B600446D6F8940300F58C4088
:102B700050302BF027FF04F53853C5F8FC0DD8F87A
:102B800000201A6005F604653B682B604FF6FF7164
:102B9000204613F0E9FB38B1D6F8942320460921EA
:102BA000BDE8F04102F086BBBDE8F08110B500F54C
:102BB0000053D3F8F04D002C55D093F8B52DD10724
:102BC00051D56FF3000283F8B52DD3F89029D3F8CF
:102BD0008C19B2F90820012C06EE902AB1F90840B0
:102BE0000BBF03F6F45200F53852D2ED007AD2ED65
:102BF000007A0CBF03F6F85203F60462D2ED005AD5
:102C00000CBFF8EEE66AF8EEE66A07EE104A25EE2B
:102C1000E66AB8EEC77A00F58050A7EE276A00F59D
:102C2000816200F2144067EEA67AD2ED006AE7EE08
:102C3000257A90ED007A27EE877AA6EE267ABDEE09
:102C4000C77A17EE104A0C8192ED007AD3F89039CA
:102C500067EE877A90ED007AE6EE477AFDEEE77A46
:102C600017EE902A1A8110BD38B504462DED028B5F
:102C700000F5005571B1204612F0DCFCD5F8FC3DA2
:102C80001B1A03F2F31340F2E63293420CD8BDEC68
:102C9000028B38BDD5F8F03D022BF8D112F0ACFC18
:102CA000B0F57A7FE7D2F2E700F58C43C5F8FC0D6A
:102CB0005033642093FBF0F308EE103ADFED0B7A0B
:102CC000B8EEC88A04F5385428EE278A05F604655C
:102CD000B0EE480ABDF0E0FB84ED000AB0EE480A11
:102CE000BDF02AFD85ED000AD1E700BF35FA8E3C24
:102CF00000F58C500121183015F028BB10B50446A2
:102D000000F512602AF052F804F54053D3F8200A77
:102D100003685B6C9847204612F0BEFA2046FFF726
:102D2000E7FF204606F082F9204605F087FA2046A4
:102D300006F024FD204604F001FA204606F0CAFB06
:102D400004F56A5030305FF001FA4FF6FF7120460B
:102D500013F00AFB10B1204602F034FB204650F07D
:102D6000EBF94FF48011204613F0FEFA30B104F570
:102D70008C501830BDE8104014F028BC10BD000085
:102D800010B5044612F092FE1021204613F0ECFA22
:102D900040B1204602F050F92AF0ACFDBDE81040E9
:102DA00029F0C0BB10BD0000FFF7EABF70B50446B4
:102DB000254606F017FC214B45F83C3B204B24658B
:102DC000C4E915341F4BC4E917341F4B636604F183
:102DD00078001BF0CDF904F190001BF0C9F904F163
:102DE000A8001BF0C5F94FF6FF76184BC4F8B830B1
:102DF000A4F8BC6004F1C0001BF0BAF9144B1549EB
:102E00001D6028464DF04EFDA4F87060A4F888605F
:102E100004F590701BF0ACF904F59C701BF0A8F958
:102E200004F5A8701BF0A4F9002384F86031C4F8FD
:102E30008431012384F88831204670BD44CF0D08C9
:102E400065260108692601086D2601080000FFFFBC
:102E50007873002098410E0810B5044606F0C2FBB6
:102E60000A4B23600123A38704F140001BF080F983
:102E700004F150001BF07CF904F160001BF078F9BC
:102E800004F170001BF074F9204610BDD8D80D086D
:102E90002DE9F0472DED028B044684B0FFF724FCAA
:102EA0009C4B236004F5EC50103002F03FFC04F51D
:102EB000EB5104F5265004311C3051F07DFE04F531
:102EC000005604F5EA531833C6F8443A04F529507D
:102ED000062386F8483A183053F072FC04F529505E
:102EE0003C3053F06DFC04F52C5504F52A500435A4
:102EF00024305EF0A1FB284684F08EFD864BC6F898
:102F0000043B281D4CF0A8FE10B9012386F8083BAD
:102F100004F52D5014304AF02DF904F52F557F4B50
:102F2000C6F8A43B04F53057043528372846143535
:102F300057F0E6FFAF42F9D10723C6F84C3D002316
:102F4000A6F8503D4FF4CB701BF0E4FCC6F8480DDA
:102F500004F5355014308EF0CBF804F536501830A7
:102F60008EF0C6F86E4A13681BB904F52E5324334D
:102F7000136004F589496B4BC6F8A43B09F1240999
:102F800004F53750C6F8C09D053082F081FCB7EEDD
:102F9000008A06F6F45383ED008A04F5385383ED76
:102FA000008A614B0393614B0093029404AB04F5D8
:102FB000385013E90C004FF400710C3019F02AF965
:102FC00004F54B500C3086F0ADFF04F56750B0EEC1
:102FD000480A0C3053F0B6FC04F56750B0EE480ACE
:102FE000243053F0F5FB04F5675004F540553430B8
:102FF0001BF0BEF805F6042300271F605F609F608A
:1030000005F5216304F569581F605F609F6004F552
:103010008C531833C5F81C3A002385F8393A08F167
:103020001C001BF0A5F804F56A5008301BF0A0F84E
:103030004FF400433E49C5F8AC3A40464DF032FCEF
:103040003C4B04F56A503030C3F800805EF0C8FF96
:1030500004F56C50183069F08DFB04F56F500C309E
:103060006AF0BEF904F5705004304EF007F8324BA8
:10307000C5F8043C04F57050183067F021FE04F5E3
:1030800089530C33C5F8443C04F570502B4B2C4944
:10309000343004F5715A18600AF1180A4DF002FC38
:1030A000FF2385F8683C85F8703C264950464DF072
:1030B000F9FB254BD3F80080B8F1000F02D023486C
:1030C00090F0A2FE04F571503830C3F800A07BF0F8
:1030D000C1FE04F5755010307CF084FE1C4B1D4879
:1030E000186004F57552203243464FF0180E1FFA4F
:1030F00083FC0EFB0CF10133415C0029F7D1164B28
:10310000A3F800C0154BD3F80080B8F1000F2BD006
:103110001348D5E7CC770D08D86E0D084C950E08EE
:103120003C7D002034780D0861260108BC770D082D
:103130001CEF0D0854730020146F0D084C82002002
:103140009CAA0E08C4C30E08DC820020506F0D0834
:1031500044740020A0BB0D084074002004740020BB
:10316000716F0D08CDCC4C3D04F575501FED030A71
:103170001A60343053F02CFB04F576500C3006F016
:1031800031FA664BC5F88C3D04F577500C3006F0EB
:1031900029FA04F57E5A624BC5F8CC3D04F5785007
:1031A0000AF1340A0830FFF701FE504606F01AFA19
:1031B0005C4BC5F8B43F0AF13C008CF07DF85A4BEB
:1031C000C5F8F03F04F5824004F580455C3006F018
:1031D00009FA564BC5F85C3104F58340203006F0FF
:1031E00001FA534BC5F8A03104F58340A5F8DC8102
:1031F000603006F0F7F94F4BC5F8E03104F5844034
:103200001C3006F0EFF94C4BC5F81C3204F5844035
:10321000C5F85872C5F85C72C5F86072703006F077
:10322000E1F9464BC5F8AC8204F58540C5F870322B
:10323000383006F0D7F9424BC5F8B83204F585406E
:10324000C5F8F4827C3006F0CDF93E4BC5F8FC326F
:1032500004F58640443006F0C5F93B4BC5F84433CD
:1032600004F58740043006F0BDF9384BC5F88433C7
:1032700004F588431846C5F8FC7318301F60FFF743
:10328000EBFD484606F0AEF9314BC5F8A43404F521
:10329000894060300FF016FF04F58B4006F0A2F96C
:1032A0002C4BC5F8803504F58B40A5F8BC85503013
:1032B00006F098F9284BC5F80C8604F58C40C5F843
:1032C000D0351430FFF7C8FD244BC5F8143604F58B
:1032D0008D40012385F89D3624300AF0FDFE04F56B
:1032E0008E40683010F0C6FF04F58F40603006F065
:1032F00079F91B4BC5F8E03705F5026520462F60CC
:103300006F6096F8DC3D23F0030343F0030386F877
:10331000DC3D04B0BDEC028BBDE8F08768CC0D0845
:10332000F8CC0D08D4CF0D0850D00D08F4D00D08FE
:1033300080D10D080CD20D0890D20D08C8D40D080C
:1033400054D50D0864D60D08E8D60D0874D70D08BD
:10335000F0D90D08ACDD0D08E8D50D0860D90D08D1
:103360003CDE0D0838B5054B1C6823680A461D680D
:10337000034B01462046A847002038BD00720020BC
:10338000D829002010B58EF033F9064C064B186092
:103390002046FFF77DFD2046044A0549BDE8104060
:1033A000BCF054BFD829002000720020D8D30020E0
:1033B0007126010801207047FA207047014B93F8ED
:1033C0001A0D7047D8390020034BD3F8F00D431E77
:1033D00058425841704700BFD8490020034BD3F8EA
:1033E000F00D831E58425841704700BFD849002055
:1033F000034BD3F8E00D08B180F0D0BF014870470F
:10340000D849002014780D0870B541698269544D7F
:1034100041F4E053436142F4E0538361C3690446DD
:1034200043F4E050E06195F8B50D460710D542F43D
:103430008E3241F48E316161A26195F8B52D50074D
:1034400006D595F8D92DD1075CBF43F48E33E361DF
:10345000636943F4C0436361D5F8C00D03681B681A
:1034600098470238192816D8DFE800F0720D0D0DC4
:103470000D0D150D1515157215720D0D0D0D720D25
:1034800072151515150DD4E9062342F4C042A26148
:1034900043F4C043E361334B1E6846B11921304603
:1034A0004EF0D2F818B1636943F48073636195F804
:1034B0004C3ADA070DD5A36943F48073A36146B192
:1034C000192130464EF0FCF818B1E36943F48073DB
:1034D000E36149F0A5FF98B190F905303BB1D4E91B
:1034E000052342F0400243F040036261A361036898
:1034F00033B10379DB0742BFE36943F04003E36183
:10350000194B93F9782C8AB1D4E9051242F0800264
:1035100041F080016161A26193F9782C32B193F896
:10352000443D1BB1E36943F08003E361636943F009
:1035300080436361A36943F08043A361D5F8E03D14
:1035400093F865301BB9E36943F08043E36170BDD4
:10355000A36943F40053A361E36943F4005399E77B
:10356000D849002050740020D859002013B54FF4DA
:10357000EC70CDE900211BF0C3F9DDE90021044620
:103580005AF09AFD024B2360204602B010BD00BFE6
:10359000B47A0D0808B590F884308B4208D250F008
:1035A0006FF916224FF4802150F020F9002008BD59
:1035B000223150F82100FAE708B590F884308B42A8
:1035C00008D250F05DF90F224FF4802150F00EF92F
:1035D000002008BD223150F82100FAE70020704792
:1035E000704700000320704710B5154CD4F8C00D8B
:1035F00003681B68984707281CD8032834BF10238A
:103600001823D4F8E02D43F0400022B192F86D2049
:103610000AB143F0C00040F0010010BD0B280DD8E6
:10362000DFE800F006060C060C060C060C0C0C0677
:103630001823E6E71038C3B20B2BEFD91023E0E7CD
:10364000D8490020014B93F81C0D7047D839002051
:10365000034B93F9040F003818BF0120704700BFD7
:10366000D8390020014B93F91E0D7047D83900203E
:103670007047000038B5C5780B46352D044628BF85
:103680003525352200211846BFF0B4FB2A4604F147
:103690000C01BDE83840BFF085BB000008B50D4BFC
:1036A000D3F8E00DA8B1383053F0E6F8034693EDB7
:1036B000000ADFED090A9620B7EE001A2BF0AEF9EA
:1036C000DFED067A20EE270ABDEEC00A10EE103AB2
:1036D00018B208BDD8490020000000000000C84210
:1036E0002DE9F04FDFF8DC80354F8DB0044604251E
:1036F00008F5005617F8019BB8F9743D09F1FF3A37
:1037000043FA0AF3D90744D5207C54F019FD8346C7
:10371000207C55F01BFC00F121039B4505D2207C49
:103720000DB0BDE8F04F53F0CFBFBAF1030F30D862
:10373000DFE80AF002363B40D6F8200A03689B68AF
:10374000984700F19003D3F800B0D3F804A0D3F861
:103750000CC018695969D3F818E0DA691B6ACDF80A
:103760002530CDF8292021236222CDE900320790AF
:103770000891207CCDF80CB0192303AAC221CDF802
:1037800010A0CDF814E0CDF818C08DF8249054F0B6
:1037900041FD013D15F0FF05ACD10DB0BDE8F08F46
:1037A000D6F8200A0368DB68CAE7D6F8200A03685F
:1037B0001B69C5E7D6F8243A03F5E873C3E700BFF1
:1037C0009C7B0D08D839002007B5019085F026FBB9
:1037D00028B1019903B05DF804EB85F0E1BA03B0BC
:1037E0005DF804FB014808F079BD00BFE0670020E8
:1037F00037B504460D4606480192114685F0F4FEA1
:10380000019A2946204603B0BDE8304059F0B0B9CE
:103810003051002010B588B0044656F0FDFE0C4B28
:10382000D3F8E00D38B90B4A0621204608B0BDE8B0
:10383000104056F0E7BD69461E2280F0B3FD064AEF
:103840006B460621204656F0DDFD08B010BD00BFD6
:10385000D849002014780D08FE6C0D08034A92F830
:103860008839013382F8883956F000B8D8490020E9
:1038700001487BF001BD00BF5066002007B5084637
:1038800001911AF043FD38B10448019903F0F8F8AA
:10389000002003B05DF804FB0420FAE70472002066
:1038A000014803F029BC00BFD8290020014803F0DB
:1038B000ADBB00BFD829002070B58B8BCD2B064641
:1038C0000C4619D10F4D95F8B21A05F52B605EF034
:1038D00043FC88B195F8B21A05F52B605EF078FCD0
:1038E00050B994ED020ADFED087ADFED080A0848C6
:1038F00020EE270A03F0A4F821463046BDE87040C8
:1039000055F0E4BFD85900200AD7233C000000003E
:103910000472002008B555F05FFF40F41C6040F0D1
:103920000D0008BD00B589B00023029303930493F2
:1039300005930693079315F07FFB02A914F0DEFAB6
:10394000B0B115F079FB14F0ADFA05A88DED050ABC
:10395000CDED060A8DED071A2EF00AFFF1EE047A7E
:1039600020EE270AFCEEC07ACDED017A9DF8040026
:1039700009B05DF804FB000010B52DED028B84B09A
:1039800015F05AFB044668461AF0F2FB69462046D9
:1039900014F068FA114B93F8B50D10F0200019D00F
:1039A00003F58053DDED017AD3F8243A986893ED5E
:1039B000928AF8EEE78A7EF0CBFD38EE408A9FEDE2
:1039C000080A38EE288A28EE008ABDEEC88A18EE6A
:1039D000103A18B204B0BDEC028B10BDD8490020DB
:1039E0000AD7233C10B504461AF090FF204610BDBC
:1039F00010B50C4C94F9B43D002B0FDBD4F8C00D7E
:103A000003685B6C984758B9D4F8C00D03681B6C09
:103A1000984700280CBF0220032010BD0120FCE7BE
:103A20000420FAE7D849002008B5134B93F8B50DE8
:103A300010F020001ED0D3F8C00D03685B6D9847CE
:103A400007EE900AB8EE677ADFED0C7A27EE277A58
:103A5000DFED0B7AB4EEE77AF1EE10FA58BFB0EE74
:103A6000677AF2EE046AC7EE267AFCEEE77A17EE82
:103A7000903A98B208BD00BFD84900200AD7233C2D
:103A800000FF7F4738B5F7EE000A91ED050A0446BE
:103A90000D462AF0ABFE28B121460548BDE8384066
:103AA00003F05EBB29462046BDE8384058F078BB9D
:103AB000D829002008B5094B93F8B50D10F0200067
:103AC0000AD0D3F8C00D03681B6D98472AF07AFF1F
:103AD000C82390FBF3F0C0B208BD00BFD849002056
:103AE00000B589B0002302930393049315F0A4FA60
:103AF00002A914F003FAD8B115F09EFA14F0D2F925
:103B0000F0EE607AF1EE400AB1EE670ABCF0E0FE3A
:103B1000DFED097A20EE270A2AF0D6FEF6EE007ACB
:103B200020EE270AFCEEC07ACDED017A9DF8040064
:103B300009B05DF804FB00BFE02E6542044B187825
:103B400020B9044B93F8B60DC0F38010704700BF46
:103B500050730020D849002007B5124B93F8B50DDB
:103B600010F020001AD003F58053D3F8240A00F592
:103B700016702EF0FDFDDFED0C7A20EE270ADFED4A
:103B80000B7AB4EEE70AF1EE10FA58BFB0EE670A0E
:103B9000FCEEC07ACDED017A9DF8040003B05DF82B
:103BA00004FB00BFD8490020CDCC4C3D00007F4332
:103BB000094B93F8C92262B9A3F5805393F8D92D24
:103BC000D20606D193F9B43D002BACBF04200320EC
:103BD00070470520704700BFD859002008B5074B33
:103BE00093F9683D032B03D0BDE8084056F022BC92
:103BF000034A022156F006FC042008BDD8390020F3
:103C00006C780D08094BD3F8082F920701D455F0B2
:103C1000D7BB03F5005303F6F81393ED000ADFED6D
:103C2000047AB8EEC00A20EE270A7047D83900207F
:103C30000AD7233C10B594B0044603A81AF098FAAA
:103C40001C4BD3F8C00D036803A9DB6C984778B30D
:103C5000002103A81AF024FB50B3247C90F006F94D
:103C6000059BDDED047A0893069B09930023F8EE8B
:103C7000E77A9FED117A0B930C930D930E930F93AC
:103C80001093119312934FF6F853ADF84C30002374
:103C9000962267EE877A8DF84E303323CDE90032D5
:103CA000079007AA57212046CDED0A7A54F0B2FAC0
:103CB00014B010BDD84900200AD7233C30B52DEDF3
:103CC0000A8B774C0546D4F8C00D036899B05B6A3F
:103CD000984700285BD004F50054D4F8F432062B42
:103CE00000F2C980DFE803F00404045788AB5300F6
:103CF0006C489FED6D8A0BF0D7FF9FED6C0A016851
:103D0000426883680D930BA80B910C922EF01CF95E
:103D1000F0EE489AB0EE40CAF0EE60BAB0EE419ACA
:103D2000B0EE48AAF0EE488AF0EE48AAB0EE48BAE3
:103D300040F6F8542D7C90F099F8002315931693D3
:103D400001238C228DF85E303323CDE900320B90B5
:103D5000B1EE499AF1EE688AB1EE488A0BAA552174
:103D600028468DED0CCACDED0DBA8DED0E9A8DED78
:103D70000FBACDED10AACDED118A8DED12AACDEDC1
:103D8000139A8DED148AADF85C4054F043FA19B0E3
:103D9000BDEC0A8B30BD43480BF086FF9FED430A14
:103DA0000168426883680D930BA80B910C922EF06A
:103DB000CBF83C48F0EE60BAB0EE419AB0EE40CAA3
:103DC0000BF076FF9FED390A2EF0BEF83548B0EEC5
:103DD00040BAF0EE60AAF0EE418A0BF06DFF9FED65
:103DE000330A2EF0B1F84FF44064B0EE40AAF0EE82
:103DF000609AB0EE418A9DE72A489FED2B9A0BF01E
:103E000057FF9FED2A0A2EF09FF82648B0EE40BAE1
:103E1000F0EE60AAF0EE418A0BF04EFF9FED230A10
:103E20002EF092F8F0EE49BAB0EE40AAF0EE609AA9
:103E3000B0EE418AB0EE49CA40F607447AE7194825
:103E4000DFED198A0BF038FF9FED180A2EF07CF891
:103E5000F0EE68AAB0EE40AAF0EE609AB0EE418AA9
:103E6000B0EE68BAB0EE689AF0EE68BAB0EE68CA22
:103E700040F63F445EE79FED0C8A0024F0EE489A3E
:103E8000B0EE48AAF0EE488AF0EE48AAB0EE48BA82
:103E9000B0EE489AF0EE48BAB0EE48CA4AE700BF22
:103EA000D8490020906C0020000000000AD7233C75
:103EB0002DE9F04F2DED028B194B047CD3F8203AFD
:103EC0008DB0D3F854809F6DDE6D1D6E93ED198A11
:103ED000D3F868B0D3F86CA0D3F8AC908FF0C6FFDD
:103EE00000238DF82C3016222523CDE900320290D4
:103EF00002AA532120468DED078ACDF820B0CDF8D7
:103F000024A0CDF82890CDF80C800497059606954E
:103F100054F080F90DB0BDEC028BBDE8F08F00BF0E
:103F2000D859002030B5244B93F8F21C012985B0F4
:103F300029D8182201FB0220184490F9BD0B10B3B8
:103F400003F6B8344A431444D4ED047A7C20F0EEEE
:103F5000E77A00FB0130F5EEC07AF1EE10FA90F846
:103F6000115C06DC90F8100C18B91A4492F9DA2B9F
:103F70004AB145B103F6BC337C2202FB013393ED19
:103F8000100A05B030BD002301930293039315F08E
:103F900053F801A913F0B2FF18B101A82EF0E8FB05
:103FA000EFE721F005FB90F8B832A82202FB0300EE
:103FB00090ED330AE5E700BFD83900202DE9F04144
:103FC0002DED068B3E4D95F8B53D99068CB0044617
:103FD00071D505F580579FED3B0AD7F8200ADFED34
:103FE0003A8A3C302DF0B0FF8DED041A21EE281AEC
:103FF000D5F8C06DCDED030ABDEEC11A8DED020AF4
:1040000011EE103A1DB2336894F810801B6D3046E3
:1040100020EEA89A60EE289A984707EE900AF8EEEC
:10402000E77A304667EEA87AFDEEE77A17EE903A27
:104030001CB233685B6D984707EE900AB8EE678A4A
:10404000DFED227AD7F8243A28EE288A986893ED93
:1040500092AAB4EEE78AF1EE10FA58BFB0EE678A82
:104060007EF076FA336830469B6DF0EE40AA9847B2
:10407000BCEEC88A00233AEE6AAA089318EE103AFA
:10408000B7222AEE28AA20EE280AADF82C301A23EF
:10409000CDE900323E2105AA4046CDED059A8DEDD1
:1040A000069A8DED07AA8DED090AADF82850ADF8F6
:1040B0002A4054F0AFF80CB0BDEC068BBDE8F0819F
:1040C000D84900209F0CB3450AD7233C00FF7F4707
:1040D00070B58A7A4B7A43EA0223CA7A43EA0243EA
:1040E0009D2B06460C461BD1104D95F8B21A05F5CE
:1040F0002B605EF031F898B195F8B21A05F52B6097
:104100005EF066F860B9D4ED057A9FED090ADFED3F
:10411000090A0948F8EEE77A27EE800A02F090FCD7
:1041200021463046BDE8704055F0D4BAD859002039
:104130000AD7233C000000000472002008B590F864
:10414000D63153B9006B03681B6A9847B0F5005F1E
:1041500028BF4FF4005080B208BD0020FCE70000EB
:10416000034BD3F8E00D08B190F86C00704700BF26
:10417000D849002008B5034BD3F8C00D03681B686D
:10418000984708BDD8490020024B93F8B50DC0F3FD
:1041900040107047D849002070B52C4E2DED028B91
:1041A0000546D6F8C00D91ED018A036886B05B6ABA
:1041B0000C46984750B9BDEEC88A18EE103ADB0796
:1041C00004D4022006B0BDEC028B70BDD4E904011A
:1041D0002BF0DCFC0028F4D002A819F0C9FF02AAD9
:1041E0002146284658F0D4FE0028EAD0184902A8F3
:1041F0001AF098F803460028E3D1DFED160A009084
:104200000246B0EE600A144802A90BF031FCD8B1A6
:10421000D6F8C00D03685B6A9847044608B10020D1
:10422000D0E70E480222042105F006FE60B1DFED62
:10423000090A094800942346B0EE600A224602A902
:104240000BF016FC0028EAD10420BBE7D849002077
:10425000CC63002000000000906C0020D8290020D2
:1042600010B5D1ED007AFCEEE77A044617EE903AED
:1042700013F0FF030FD10F4BD3F8C00D03685B6E33
:10428000984708B1002010BD0B4A2046062156F081
:10429000B9F80420F7E7012B09D1064BD3F8C00D7C
:1042A00003689B6E98470028ECD1044AEDE7022092
:1042B000E9E700BFD849002090780D08A0780D08E4
:1042C0008A8BC02A82B01DD0C12A1ED0202A1FD1BD
:1042D000D1ED007AF5EEC07AF1EE10FA1BDD9FED1C
:1042E0000F7AF4EEC77AF1EE10FA14D8FCEEE77A02
:1042F0000B4ACDED017A9DF80430A2F85A37002020
:1043000002B0704702B0FFF747BF02B0FFF7A8BF87
:1043100002B058F035BF0320F2E700BF00007F4332
:10432000D849002010B52DED028B8CB00023044637
:1043300003930493059314F07FFE03A913F0DEFDAD
:1043400050B314F079FE13F0ADFDF0EE607A8DED10
:10435000060ACDED070AF1EE400AB1EE670A247CA9
:104360008DED081ABCF0B4FA06A8B0EE408A2EF023
:10437000FFF9DFED0B7A089B0B93012228EE278AC9
:104380000C23CDE90032A82109AA20468DED098A27
:104390008DED0A0A53F03EFF0CB0BDEC028B10BD50
:1043A000E02E65422729F7B505460E4611D00AD8FA
:1043B00019290ED024290ED03146284603B0BDE875
:1043C000F04059F08BB9382919D0A1F13A03012BEB
:1043D000F2D801200DE0FFF7B1FE0446287C54F02E
:1043E000B5FD00F10C039C4205D2287C53F06CF91A
:1043F000002003B0F0BD2846FFF794FFE9E7104B1B
:104400001F68002FE5D0FFF799FE0446287C54F082
:104410009DFD00F126039C424FF00004E5D30DF111
:10442000060231462846ADF8064057F097F80028B6
:10443000CFD0BDF80620297C38466BF09FFDC8E739
:10444000D882002070B52DED028B8B8BC12B90B0E4
:1044500004460E4600F0218220D8202B00F0B480C4
:104460000AD8113B9AB2052A0FD8052B0DD8DFE8E0
:1044700003F09F0C0CA5A87EB22B00F0FB80BD2B97
:1044800000F09180732B00F0B7803146204610B0C9
:10449000BDEC028BBDE870405AF0D2BC4AF211422A
:1044A000934200F06A8140D8B3F5967F00F009810D
:1044B00027D8D02B00F01B81D12BE6D1D1ED017A8A
:1044C000FCEEE77ACDED037AD1ED007AFCEEE77AE7
:1044D000CDED047AD1ED047A9DF81020FCEEE77A58
:1044E000CDED057A9DF814300093D1ED030A91EDDE
:1044F000020A9DF80C300146B94810F033FE04461C
:10450000B3E040F6D8129342BFD1D1ED017AB5485D
:10451000FCEEE77ACDED037A9DF80C30012B0CBF51
:10452000002101216BF08AFE3BE04AF213429342E4
:1045300000F072814AF26862934200F0FA804AF217
:1045400012429342A1D1A84D95F8D94D14F001041F
:1045500027D1D5F8E03D93F86D30002B40F0228153
:104560000122114605F60430FDF7A0FC7DE0D1EDF7
:10457000027A9FED9E7A91ED060A9B4BF0EEE77A68
:10458000F4EEC77ADFED9A7AD3F8C00DF1EE10FAA7
:1045900020EE270A4CBF0121002112F043FA002827
:1045A00062D0002461E00221924806F0F3FDF6E7B4
:1045B000022205218A4805F03FFCF0E7022206218D
:1045C000F8E702220921F5E7D1ED007AF5EEC07A8D
:1045D000F1EE10FA48DD9FED887AF4EEC77AF1EE3D
:1045E00010FA41D8FCEEE77A7F4ACDED037A9DF8C8
:1045F0000C30A2F85A37D4E7D1ED007AF5EEC07A44
:10460000F1EE10FA30DB9FED7D7AF4EEC77AF1EE31
:1046100010FA29D891ED030A9FED748AF0EEC07A62
:10462000F4EEC87AF1EE10FA18D5D6ED037AD6ED8D
:10463000010A96ED000A7248F4EEC87AD6ED027AC5
:10464000FDEEE77AF1EE10FACDED037A9DF90C104C
:10465000ACBF0122002202F073F9A2E7F7EE000AD4
:104660002AF0C4F80028E0D10424204610B0BDECA4
:10467000028B70BD91ED010AB5EEC00AF1EE10FAA1
:10468000F2DD9FED5B7AD1ED007A5E4B20EE070AFA
:104690009FED5D7AD3F8280AF4EEC77AF1EE10FAAE
:1046A00002DD7CF019FA7CE79FED587AF4EEC77AC8
:1046B000F1EE10FA02DD7CF0FFF972E77CF01AFAF5
:1046C0006FE747480222032105F0B6FB0028CBD054
:1046D00043480121FDF728FD4A4890F8443E012B4C
:1046E0003FF45FAF00F6446030F06EF959E7D1ED6A
:1046F000007AFCEEE77A17EE903A99B201290DD0D4
:10470000022912D00029AFD10021414861F088F878
:1047100051F0DEF8312151F02DF842E73C4861F0CC
:104720007FF851F0D5F83221F5E72D4803F01AFB58
:1047300037E7384884F0C8FA002895D0D6ED017ADA
:10474000FCEEE77ACDED037A9DF80C40012C08D001
:10475000022C0CD0002C87D1234B002283F83C275D
:1047600083E796ED020A2B4884F0EEFA19E796EDFE
:10477000030A284884F0FCFA13E71B4890F8D93D57
:10478000DB073FF50EAF02220521A0F5005005F032
:1047900053FB00287FF405AF02221146104805F0B4
:1047A0004BFBFEE695F9B43D002B4FF0020212DA06
:1047B0000B48052105F040FB00283FF4F2AE96EDD2
:1047C000000ADFED0B7AD5F8C00D20EE270A012193
:1047D00012F028F949E70921014805F02DFB44E7CB
:1047E000D829002030660020D8490020000000347D
:1047F0000000C842E067002000007F430000B4438F
:1048000004720020D85900209A9939403333F33F7D
:104810000C66002008510020254D95F8D94D14F064
:1048200001047FF4BEAED5F8E03D93F86D30002B67
:104830003FF4B7AE95F9B43D002B06DA012208210A
:1048400005F60430FDF7EEFB0FE7D1ED007A9FEDA2
:10485000197AF0EEE77AF4EEC77AF1EE10FA0CD599
:1048600015480222112105F0E7FA002894D01348D8
:1048700040F6C41108F0F2FDF7E6D5F8C00D036864
:104880001B68984704283FF48CAED5F8C00D036828
:104890001B6898471428E3D183E607A93046032212
:1048A00057F006FE07A92046FFF7DAFC27E600BF0F
:1048B000D849002000000034D8290020346B0020A3
:1048C00008B591ED007AF6EE007AB4EEE77AF1EEF3
:1048D00010FA06DD044801220521FDF7A3FB0020A4
:1048E00008BD0420FCE700BFDC5400202DE9F047A0
:1048F0002DED028B8A7A4B7A43EA0223CA7A43EA85
:104900000243562BA4B005460C4600F0638210D833
:10491000522B00F0A180542B00F02C81452B40D06D
:104920002146284624B0BDEC028BBDE8F0475AF082
:1049300011B8A62B00F049830ED86D2B00F04583EB
:1049400003F18073863B23F07F43012BE8D824B02A
:10495000BDEC028BBDE8F087F32BE1D1924958F012
:1049600037F8E5783D2D28BF3D253D22002114A8CC
:10497000BEF040FA2A4604F10C0114A8BEF012FA67
:10498000DDE91465169C46EA0503234340F02B83BA
:104990008648012124B0BDEC028BBDE8F04702F04F
:1049A000ABBB834ECA79B6F91C3D9A42CFD1CA78C7
:1049B0000B2A28BF0B224FF000080C3114A8CDE9B8
:1049C0001488CDF85780BEF0EDF99DF85A20B6F95D
:1049D0001A3D9A42BBD1BDF95490C145B7DB8FF067
:1049E00045FACDE9000806F5805607469FED710AA5
:1049F000BDF95220D6F88C194FF47A73284658F036
:104A0000F9FB0123CDE900739FED6A0ABDF950203F
:104A1000D6F890194FF47A73284658F0EBFBCDE99D
:104A200000789FED650AD6F8941943464A46284611
:104A300058F0E0FBCDE900789FED5E0ABDF9562005
:104A4000D6F898194FF47A73284658F0D3FB58F0EB
:104A5000F9FCC0F8A0717AE7CD78272D28BF27256B
:104A60002722002114A8BEF0C5F92A4604F10C0142
:104A700014A8BEF097F9514BD3F8C00D03685B6AD8
:104A8000984700283FF463AF9DF876506F063FF5D6
:104A90005EAF00244FF07E532E06109313941294B1
:104AA000119428D510A82CF099FC45480AF0D8FCA0
:104AB0009DED1C0A064600282CD040F27240B7EE4D
:104AC000001AFFEE000A29F0A9FF0C940D940E9431
:104AD000EC075CBF199B0C93A8075CBF1A9B0D9356
:104AE00069075CBF1B9B0E93354833460CAA10A97F
:104AF0000AF0BEFC2BE7159B1093169B1193179B96
:104B0000129310A8189B13932CF06EFC00283FF40E
:104B10001EAFCAE7DFED2B0A40F27540B7EE001A70
:104B200029F07CFFF6EE000AB0EE408A29F05EFE26
:104B3000E8B9B6EE000A244BB4EEC08AF1EE10FAE2
:104B4000D3F8283A08DD38EE400A30EE008A93EDBB
:104B5000070A28EE000AB8E730EE480AD3ED087AD3
:104B600030EE000AF0EEE77A27EEC00AADE79FEDDF
:104B7000150AAAE7204614A9FEF77CFD0F4BD3F8CF
:104B8000C00D03685B6A984700283FF4E0AE9DF8CB
:104B90008430012B1CD0DA1F022A19D901210848C0
:104BA0000AF0FCFBD3E600BFB4780D08D82900203A
:104BB000D83900200000FA4400007A44D849002087
:104BC000906C002000000000D85900200000C8426E
:104BD000BDF88040A20504F4E07502D5002D3FF435
:104BE000B6AE4FF0000814F00706CDF82480CDF8DB
:104BF0002880CDF82C8027D11FED0C6A9DED167A08
:104C0000DDED177ADDED156A27EE067A67EEC67AD6
:104C100066EE866A083B012BCDED096A8DED0A7AB6
:104C2000CDED0B7A04D865480AAA09A9FDF7D2FB95
:104C30009DF88430073B022B06D861487DF084FC48
:104C4000014609A82DF0A0F914F03807CDF83080FE
:104C5000CDF83480CDF838801DD19FED5A6A9DED96
:104C6000197ADDED1A7ADDED186A9DF8843027EEA9
:104C7000067A67EEC67A66EE866A083B012BCDEDB2
:104C80000C6A8DED0D7ACDED0E7A04D84B480DAA45
:104C90000CA9FDF79FFBCDF84080CDF84480CDF8FE
:104CA0004880EDB99FED476A9DED1C7ADDED1D7AD8
:104CB000DDED1B6A9DF8843027EE067A67EEC67A32
:104CC00066EE866A083B012BCDED106A8DED117AF8
:104CD000CDED127A04D8394811AA10A9FDF77AFB54
:104CE00014F4806233D1DFED387A9DED1E0A9DF811
:104CF000841020EE270ADFED337A0839012920EEEF
:104D0000270A8CBF0021012114F4006305BFDFEDE9
:104D10002E7ADDED1F0ADFED2D0A60EEA70A04BF33
:104D2000DFED287A60EEA70AAEB9002F35D1B3FACD
:104D300083F3B2FA82F25B09520902910193009265
:104D400010AB0CAA09A922480AF010FEFFE59FED5E
:104D50001F0A0021D8E77FB9B3FA83F35B0901206A
:104D60000093B2FA82F3CDE901105B0910AA0CA9F5
:104D700017480AF08DFDEAE5002D7FF40FAF012002
:104D8000B3FA83F3B2FA82F2CDE900105B0952095B
:104D900010A90F480AF024FDD9E5002D3FF4FEAE1E
:104DA000B3FA83F3B2FA82F2CDE900165B09520935
:104DB00009A907480AF04CFCC9E500BFD829002022
:104DC000DC6300200000C842E02E654200000000C5
:104DD000906C0020204614A9FEF74CFC894BD3F8B8
:104DE000C00D03685B6A984700283FF4B0ADBDF87A
:104DF0008040A30504F4E07702D5002F3FF4A7AD6F
:104E00000CAE04F00708304619F0B2F9B8F1000F03
:104E100025D1DDE915012AF0B9FE00283FF4BEAE28
:104E20009DF8841009AA284658F09CF800283FF401
:104E3000B5AEDDED177A9FED747A099B009367EEAE
:104E4000877A10ADFDEEE77ADDE9151217EE903A9C
:104E5000284619F0ADF995E80F0086E80F00002507
:104E600014F0380A06950795089513D19FED666AE8
:104E70009DED197ADDED1A7ADDED186A27EE067AD6
:104E800067EEC67A66EE866A8DED077ACDED066A24
:104E9000CDED087A09950A950B959FB99FED5A6A51
:104EA0009DED1C7ADDED1D7ADDED1B6A27EE067A9D
:104EB00067EEC67A66EE866A8DED0A7ACDED096AEE
:104EC000CDED0B7A14F4806905BFDFED507A9DEDCE
:104ED0001E0A9FED4F0A20EE270A04BFDFED4A7A33
:104EE00020EE270A14F4006405BFDFED487ADDEDFB
:104EF0001F0ADFED470A60EEA70A04BFDFED427A22
:104F000060EEA70AB8F1000F31D1BAF1000F4CD111
:104F10003046CDED050A8DED040A19F059F9032844
:104F20009DED040ADDED050A3FF438AE10A93046C8
:104F3000CDED050A8DED040A10951195129519F025
:104F400097FA00283FF42AAEB4FA84F46409B9FA57
:104F500089F3DDED050A9DED040ACDF804A0009467
:104F60005B0906AA10A92B480AF070FDEFE4BAF11C
:104F7000000F0CD10123B4FA84F4CDE901A3640934
:104F8000B9FA89F300945B0909AA06A9F0E6002F93
:104F90007FF404AE0123CDE90073B9FA89F2B4FAC3
:104FA00084F35B09520909A9F3E6002F3FF4F6AD3B
:104FB000B4FA84F3B9FA89F2CDF800805B0952099A
:104FC000314614480AF054FDC1E40821124811F09A
:104FD000CBF921460246284624B0BDEC028BBDE841
:104FE000F04755F099BB10A819F0C2F8012210A99A
:104FF00009480A23CDE9126594FBF3F4119402F0F9
:1050000005F8A4E4D84900200000C842E02E65421B
:1050100000000000906C0020D829002010B590F806
:10502000551304461CF0E6FA7C23C0B203FB00448F
:1050300094F8510010BD00002DE9F0432DED028BD6
:1050400000F500560446D6F8C00D036891B05B69C0
:10505000984704F540590027002840F08C80D9F883
:10506000243ADFED477A93ED927A87EE278AD3EDE3
:10507000987AFDEEE77A17EE903A1DB204F52A58B9
:1050800008F1140801A9404610F07CFF18B950F04F
:105090001FFC3C4B01933722002102A8BDF0AAFE61
:1050A000A3238DF8083095238DF809308EF0E6FEA5
:1050B000D9F8203ACDF80B00D6F8E00DD3F8AC20A3
:1050C000D3F8B030CDF80F103830CDF81320CDF82C
:1050D000173051F0D1FB0346DFED2B0A93ED000AA8
:1050E000B7EE001A962029F099FC10EE103AD6F887
:1050F000E00DCDF81B3003685B68984710EE103A5E
:1051000004F56856CDF81F30043618EE103A3046D4
:10511000CDF823307DF01CFADFED1C7A20EE270A53
:10512000404610EE103ACDF82730D9F8C839CDF8FE
:105130002B30019BCDF82F3010F04AFF10EE103AC3
:105140003046CDF83330CDF83770ADF83B507DF0B8
:105150000BFABDEEC00A04F5265010EE103A3722C5
:1051600002A91C30ADF83D304FF0FAFD11B0BDEC96
:10517000028BBDE8F08308EE107A00257EE700BFC1
:105180000000C8422292CA7F000000000AD7233CD8
:10519000F0B500F540550446D5F8200A9FED400AC9
:1051A0008BB03C302CF0D0FE0AAACDED080A8DED74
:1051B000091A8DED070A12E9070001AE86E807001B
:1051C00004AB9DED030A83E8070029F0BBFB04F55F
:1051D000005704F58C50314618308DED030A12F05B
:1051E00003F9D7F8E01DD7F8000BD5F8243AD5F825
:1051F000202A12F04BFA4FF48051204611F0B4F8F7
:10520000002844D0D5F8200A03689B68984704F525
:1052100026561C3600F190025F2130464EF0E0FF2A
:10522000D5F8200A0368DB689847602100F19002F6
:1052300030464EF0D5FFD5F8200A03681B69984721
:10524000612100F1900230464EF0CAFFD5F8242AC1
:105250006221304602F5E8724EF0C2FF202120465E
:1052600011F082F898B1D7F8C00D03681B69984710
:1052700078B1D5F8242A6421943230464EF0B0FF3C
:10528000D5F8242A6521BC3230464EF0A9FF0BB078
:10529000F0BD20460BF00CFC0028EAD1F7E700BF78
:1052A0009F0CB34508B513F0C7FEBDE8084013F0E6
:1052B000A3BE00007FB50E464FF6FF7104461546AB
:1052C00011F052F8E8B1102200216846BDF092FDBD
:1052D000A3238DF8003095238DF8013003238DF83A
:1052E00002308EF0CBFDCDF8030004F52650CDF84A
:1052F0000710102269461C308DF80B6003954FF0A3
:10530000B3FD04B070BD00007FB50E464FF6FF71CF
:105310000446154611F028F8E8B11022002168462D
:10532000BDF068FDA3238DF8003095238DF8013082
:1053300004238DF802308EF0A1FDCDF8030004F5B2
:105340002650CDF80710102269461C308DF80B60EE
:1053500003954FF089FD04B070BD000030B52DED10
:10536000048B87B004460D46182200216846B0EE33
:10537000409AF0EE608AB0EE418ABDF03BFDA32377
:105380008DF8003095238DF8013006238DF802301A
:105390008EF074FDCDF8030004F52650CDF807100B
:1053A000182269461C308DF80B508DED039ACDED17
:1053B000048A8DED058A4FF0D3FC07B0BDEC048B59
:1053C00030BD000070B590F88124382300F50055F9
:1053D00003FB020295F8DC1D92F8A934044601F0A3
:1053E000010123B192F8AA340BB192F8AB3499427F
:1053F00011D095F8DC2D63F3000285F8DC2D50F018
:1054000067FA95F8DC3D13F0010F0CBF042200226F
:10541000122150F0CFF904F2C454204695F8DC6D07
:10542000FFF7FCFDC6F34006864216D02046FFF784
:10543000F5FD95F8DC3D60F3410385F8DC3D50F067
:1054400047FA95F8DC3D13F0020FBDE870400CBF41
:1054500004220022032150F0ADB970BD2DE9F04FB8
:105460002DED028B8DB080462F220021684611EE73
:1054700010BA11EE90AA12EE109A12EE907A13EE74
:10548000106A13EE905A14EE104AF0EE408AB0EE15
:10549000608ABDF0AFFCA3238DF8003095238DF812
:1054A000013009238DF802308EF0E8FC18EE903AB6
:1054B000CDF80300CDF80B3008F5265018EE103A61
:1054C000CDF807102F2269461C30CDF80F30CDF8EB
:1054D00013B0CDF817A0CDF81B90CDF81F70CDF804
:1054E0002360CDF82750CDF82B404FF039FC0DB09C
:1054F000BDEC028BBDE8F08F30B52DED088B8BB085
:1055000004460D46282200216846B0EE40BAF0EE6F
:1055100060AAB0EE41AAF0EE619AB0EE429AF0EEC7
:10552000628AB0EE438ABDF065FCA3238DF800309B
:1055300095238DF801300A238DF802308EF09EFC01
:10554000CDF8030004F52650CDF80710282269464F
:105550001C308DF80B508DED03BACDED04AA8DED06
:1055600005AACDED069A8DED079ACDED088A8DED51
:10557000098A4FF0F5FB0BB0BDEC088B30BD000085
:105580002DE9F0438FB014460546894631220021AB
:1055900001A8DDE916769846BDF02CFCA3238DF812
:1055A000043095238DF8053008238DF806308EF0F1
:1055B00065FC2368049363680593A36806933B68BE
:1055C000CDF81D307B68CDF82130BB68CDF8253093
:1055D0003368CDF80700CDF8293005F526507368FB
:1055E000CDF80B10CDF82D303122B3688DF80F9027
:1055F00001A91C308DF81C80CDF831304FF0B0FB84
:105600000FB0BDE8F083000070B52DED068B8CB0B7
:10561000144605460E462C22002101A8B0EE409A01
:10562000F0EE608AB0EE418AB0EE61AAF0EE429AE6
:10563000BDF0E0FBA3238DF8043095238DF80530F1
:105640000B238DF806308EF019FCDFED1A7A94EDFD
:10565000007ACDF8070027EE277A29EE279A8DEDFC
:10566000077A94ED017ACDF80B1027EE277A68EED1
:10567000A78A8DED087A94ED027A8DF80F6028EEF6
:10568000278A05F5265067EE277A2C2201A91C30BF
:105690008DED049ACDED058A8DED068ACDED097A62
:1056A0008DED0AAACDED0B9A4FF05AFB0CB0BDEC74
:1056B000068B70BDE02E654230B5154B044689B0AF
:1056C00004F52655D3F8E00D69461C351E227EF000
:1056D00069FE6A460F4928464FF0CCFC04F500539A
:1056E000D3F8C00D03681B68984704F58053014642
:1056F00093F8002D28464FF0E1FC04F58C5018304B
:1057000013F02EFF04F588701EF0B6FC09B030BD12
:10571000D8490020FE6C0D0800F5265002499C2255
:105720001C304FF08BBF00BF38A00D08F8B5314DCD
:105730004560044608306EF041FC04F1600064F0FE
:10574000DDFE00232C4AC4F88030C4F88430C4F84D
:105750008830C4F8A830294BC4F8A020C4F8AC3075
:105760004FF08042264BC4F8B03005F59261C4F882
:10577000A42004F1B40081F019F804F5C4705AF0C3
:1057800033F8204F204BC4F888314FF4D27540F2E3
:10579000644660195AF094F967512C35B542F8D136
:1057A00004F264405BF0D8FC002104F6EC0080F0C9
:1057B000FBFB164D04F51A6083F076FAC4F8C05965
:1057C00004F6C81083F044FEA5F2B463C4F8503A5E
:1057D00004F65C2067F05EFBA5F5E273C435204655
:1057E0000B49C4F8B03BC4F8BC5B4BF05BF82046F7
:1057F000F8BD00BF203600200000C8410AD7233C76
:105800000000E04000C70D0814C70D087C700020A0
:1058100030B80D08F0B52DED028B774C7749ADF51A
:105820004B7D064690223AA8BDF0BCFA0FCC0EADD7
:105830000FC50FCC0FC594E80F0004F5987785E8E5
:105840000F0004F110014FF4907282A8BDF0AAFA83
:105850000FCF06AD0FC597E80F0004F5A87485E8D3
:105860000F000FCC1AAD0FC50FCC0FC50FCC0FC555
:1058700094E80F0085E80F0006F5805393F96A2D30
:10588000531EDBB2012B40F2B3809FED5D8A9FED8A
:105890005D0A032A18BFB0EE408A00243AAB1819FB
:1058A0000021B0EE480A10344AF052FC902CF5D199
:1058B0009FED558A00240EAB18190021B0EE480A5E
:1058C00010344AF045FC302CF5D1002482AB181975
:1058D0000021B7EE000A10344AF03AFCB4F5907F8C
:1058E000F4D19FED4A0A002106A84AF031FC0021BC
:1058F0000AA89FED460A4AF02BFC454B0FCB02ACA1
:1059000084E80F0001A920464AF0D6FB90B19DF92A
:105910000430DFED406AE06807EE103AB8EEC77A6F
:10592000F0EE007AE7EE267AB7EE000A80EE270A5C
:105930004BF090FA00241AAB181900211034B7EE7E
:10594000000A4AF005FC402CF5D1334990225EA8AC
:10595000BDF028FA5EAC0025204600220121013569
:105960004AF088FC092D04F11004F5D196F92C7A3F
:105970001FBB2A4D0FCD2AAC0FC40FCD0FC40FCDC6
:105980000FC495E80F0084E80F002AAD28460022D6
:10599000012101374AF06EFC042F05F11005F5D105
:1059A00096F92C3A4BB19FED1E0A1E484BF052FA65
:1059B0001D48B7EE000A4BF04DFA1C4D9FED1C0A36
:1059C0000FCD2AAC0FC495E80F0084E80F002AA879
:1059D00000214AF0BDFB9FED160A002120464AF047
:1059E000B7FB5BF067F90DF54B7DBDEC028BF0BDAD
:1059F0009FED038A51E700BF68650D08D8640D0864
:105A00006666663F5C8FA23F530469396F12833A22
:105A100018670D08CDCCCC3D28670D08B8670D0878
:105A20000000000060B60D086FB60D08F8670D089D
:105A30000000344273B5002205460DF107011E48EF
:105A400049F0FCFE044690B34AF09EF878BB9DF8FE
:105A50000730032B2BD105F5805595F9523D022BCC
:105A600027D11648B7EE000A4BF05CFA112695F9DB
:105A7000413D022B06D11248B7EE000A46F002065D
:105A80004BF050FA23689FED0F7A26609B1B07EEC0
:105A9000903AF8EEE77A2046F0EEE77AF4EEC77A2D
:105AA000F1EE10FA4CBF0121002149F0DBFF02B0FA
:105AB00070BD1026DBE700BFB86B0D0880B60D087F
:105AC0008EB60D0800000034B1F90010B0F90030B6
:105AD0009FED097A01805B1A07EE903AF8EEE77ABB
