:020000040800F2
:10C000000006002099D200083959090895580908F6
:10C010000159090895580908CD5809089BD200080C
:10C020009BD200089BD200089BD20008DDB70B080A
:10C030009BD200089BD200089BD200089BD200082C
:10C040009BD200089BD200089BD200089BD200081C
:10C050009BD200089BD2000875C30B089DC30B0838
:10C06000C5C30B08EDC30B0815C40B089D6C0B086A
:10C07000C56C0B08F16C0B081D6D0B08496D0B08A6
:10C08000716D0B089D6D0B08216C0B089BD200088D
:10C090009BD200089BD200089BD200083DC40B082D
:10C0A0009BD200089BD200089BD200089BD20008BC
:10C0B0009BD2000889C50B089DC50B089BD20008C0
:10C0C0009BD2000829730B08D1740B089BD200087F
:10C0D0009BD2000811C50B0825C50B0839C50B08F4
:10C0E000A1C40B089BD200089BD20008C1C50B0855
:10C0F000C5C50B08D9C50B08DDC50B08C96D0B08F4
:10C100009BD200089BD20008B1C50B089BD2000847
:10C110004DC50B0861C50B089BD200089BD20008D7
:10C12000F56D0B081D6E0B08496E0B08756E0B083C
:10C13000A16E0B089BD200089BD200089BD200087E
:10C140009BD200089BD200089BD2000809BF0B08B5
:10C15000C96E0B08F56E0B08216F0B0875C50B082F
:10C160009BD200089BD200089BD200089BD20008FB
:10C170009BD200089BD200089BD200089BD20008EB
:10C180009BD200089BD200089BD200089BD20008DB
:10C190009BD200089BD200089BD200089BD20008CB
:10C1A0009BD200089BD200089BD200089BD20008BB
:10C1B0009BD200089BD200089BD200089BD20008AB
:10C1C0009BD200089BD200089BD200089BD200089B
:10C1D0009BD200089BD200089BD200089BD200088B
:10C1E000EDF30008C5240108FDA80108F1F80108D5
:10C1F000917A020845B9030809520508F157050864
:10C20000D9D4050801370608DD3E060811420608A4
:10C2100015BE0608C54D070815710708457E0708B5
:10C22000F14A0908C14F0908D15F0A08F5BF0A0899
:10C23000A9E30A0815EE0A087D180B08451E0B082D
:10C2400081F0004102E000BF83F0004330B54FEAC7
:10C2500041044FEA430594EA050F08BF90EA020F34
:10C260001FBF54EA000C55EA020C7FEA645C7FEAC7
:10C27000655C00F0E2804FEA5454D4EB5555B8BFEA
:10C280006D420CDD2C4480EA020281EA030382EA5B
:10C29000000083EA010180EA020281EA0303362DED
:10C2A00088BF30BD11F0004F4FEA01314FF4801CC0
:10C2B0004CEA113102D0404261EB410113F0004FD2
:10C2C0004FEA03334CEA133302D0524263EB430389
:10C2D00094EA050F00F0A780A4F10104D5F1200E27
:10C2E0000DDB02FA0EFC22FA05F2801841F1000182
:10C2F00003FA0EF2801843FA05F359410EE0A5F156
:10C3000020050EF1200E012A03FA0EFC28BF4CF086
:10C31000020C43FA05F3C01851EBE37101F000453C
:10C3200007D54FF0000EDCF1000C7EEB00006EEB49
:10C330000101B1F5801F1BD3B1F5001F0CD34908D3
:10C340005FEA30004FEA3C0C04F101044FEA44522A
:10C3500012F5800F80F09A80BCF1004F08BF5FEAB1
:10C36000500C50F1000041EB045141EA050130BD91
:10C370005FEA4C0C404141EB0101013C28BFB1F5A3
:10C38000801FE9D291F0000F04BF01460020B1FAEE
:10C3900081F308BF2033A3F10B03B3F120020CDAC1
:10C3A0000C3208DD02F1140CC2F10C0201FA0CF09F
:10C3B00021FA02F10CE002F11402D8BFC2F1200C04
:10C3C00001FA02F120FA0CFCDCBF41EA0C019040BA
:10C3D000E41AA2BF01EB0451294330BD6FEA040403
:10C3E0001F3C1CDA0C340EDC04F11404C4F12002EE
:10C3F00020FA04F001FA02F340EA030021FA04F300
:10C4000045EA030130BDC4F10C04C4F1200220FA56
:10C4100002F001FA04F340EA0300294630BD21FA94
:10C4200004F0294630BD94F0000F83F4801306BF5A
:10C4300081F480110134013D4EE77FEA645C18BF4E
:10C440007FEA655C29D094EA050F08BF90EA020FE5
:10C4500005D054EA000C04BF1946104630BD91EADD
:10C46000030F1EBF0021002030BD5FEA545C05D1E0
:10C470004000494128BF41F0004130BD14F580041F
:10C480003CBF01F5801130BD01F0004545F0FE4193
:10C4900041F470014FF0000030BD7FEA645C1ABFC8
:10C4A000194610467FEA655C1CBF0B46024650EAFF
:10C4B000013406BF52EA033591EA030F41F400212B
:10C4C00030BD00BF90F0000F04BF0021704730B5B1
:10C4D0004FF4806404F132044FF000054FF0000186
:10C4E00050E700BF90F0000F04BF0021704730B547
:10C4F0004FF4806404F1320410F0004548BF40421C
:10C500004FF000013EE700BF42004FEAE2014FEA70
:10C5100031014FEA02701FBF12F07F4393F07F4F4B
:10C5200081F06051704732F07F4208BF704793F04E
:10C530007F4F04BF41F40021704730B54FF4607461
:10C5400001F0004521F000411CE700BF50EA010264
:10C5500008BF704730B54FF000050AE050EA01020D
:10C5600008BF704730B511F0004502D5404261EB7D
:10C5700041014FF4806404F132045FEA915C3FF4BE
:10C58000D8AE4FF003025FEADC0C18BF03325FEA5B
:10C59000DC0C18BF033202EBDC02C2F1200300FA0C
:10C5A00003FC20FA02F001FA03FE40EA0E0021FA31
:10C5B00002F11444BDE600BF70B54FF0FF0C4CF41F
:10C5C000E06C1CEA11541DBF1CEA135594EA0C0FD1
:10C5D00095EA0C0F00F0DEF82C4481EA030621EA0C
:10C5E0004C5123EA4C5350EA013518BF52EA033547
:10C5F00041F4801143F4801338D0A0FB02CE4FF0F9
:10C600000005E1FB02E506F00042E0FB03E54FF028
:10C610000006E1FB03569CF0000F18BF4EF0010E20
:10C62000A4F1FF04B6F5007F64F5407404D25FEA1C
:10C630004E0E6D4146EB060642EAC62141EA5551CF
:10C640004FEAC52040EA5E504FEACE2EB4F1FD0C11
:10C6500088BFBCF5E06F1ED8BEF1004F08BF5FEA8F
:10C66000500E50F1000041EB045170BD06F0004641
:10C6700046EA010140EA020081EA0301B4EB5C04EE
:10C68000C2BFD4EB0C0541EA045170BD41F48011E6
:10C690004FF0000E013C00F3AB8014F1360FDEBF0B
:10C6A000002001F0004170BDC4F10004203C35DAE7
:10C6B0000C341BDC04F11404C4F1200500FA05F36A
:10C6C00020FA04F001FA05F240EA020001F000420B
:10C6D00021F0004110EBD37021FA04F642EB060181
:10C6E0005EEA430E08BF20EAD37070BDC4F10C04AB
:10C6F000C4F1200500FA04F320FA05F001FA04F26F
:10C7000040EA020001F0004110EBD37041F100015A
:10C710005EEA430E08BF20EAD37070BDC4F1200565
:10C7200000FA05F24EEA020E20FA04F301FA05F2CD
:10C7300043EA020321FA04F001F0004121FA04F275
:10C7400020EA020000EBD3705EEA430E08BF20EA45
:10C75000D37070BD94F0000F0FD101F0004640007F
:10C7600041EB010111F4801F08BF013CF7D041EA01
:10C77000060195F0000F18BF704703F00046520005
:10C7800043EB030313F4801F08BF013DF7D043EAD6
:10C790000603704794EA0C0F0CEA135518BF95EA8C
:10C7A0000C0F0CD050EA410618BF52EA4306D1D113
:10C7B00081EA030101F000414FF0000070BD50EA32
:10C7C000410606BF1046194652EA430619D094EABC
:10C7D0000C0F02D150EA013613D195EA0C0F05D1A6
:10C7E00052EA03361CBF104619460AD181EA0301FA
:10C7F00001F0004141F0FE4141F470014FF00000B2
:10C8000070BD41F0FE4141F4780170BD70B54FF04C
:10C81000FF0C4CF4E06C1CEA11541DBF1CEA1355CC
:10C8200094EA0C0F95EA0C0F00F0A7F8A4EB0504AE
:10C8300081EA030E52EA03354FEA013100F08880A5
:10C840004FEA03334FF0805545EA131343EA12636E
:10C850004FEA022245EA111545EA10654FEA002623
:10C860000EF000419D4208BF964244F1FD0404F5DC
:10C87000407402D25B084FEA3202B61A65EB030538
:10C880005B084FEA32024FF480104FF4002CB6EBF5
:10C89000020E75EB030E22BFB61A754640EA0C0075
:10C8A0005B084FEA3202B6EB020E75EB030E22BFB5
:10C8B000B61A754640EA5C005B084FEA3202B6EBF6
:10C8C000020E75EB030E22BFB61A754640EA9C00B5
:10C8D0005B084FEA3202B6EB020E75EB030E22BF85
:10C8E000B61A754640EADC0055EA060E18D04FEA43
:10C8F000051545EA16754FEA06164FEAC30343EAE3
:10C9000052734FEAC2025FEA1C1CC0D111F4801FAF
:10C910000BD141EA00014FF000004FF0004CB6E7A8
:10C9200011F4801F04BF01430020B4F1FD0C88BF47
:10C93000BCF5E06F3FF6AFAEB5EB030C04BFB6EB52
:10C94000020C5FEA500C50F1000041EB045170BD45
:10C950000EF0004E4EEA113114EB5C04C2BFD4EB72
:10C960000C0541EA045170BD41F480114FF0000EF6
:10C97000013C90E645EA060E8DE60CEA135594EA72
:10C980000C0F08BF95EA0C0F3FF43BAF94EA0C0F75
:10C990000AD150EA01347FF434AF95EA0C0F7FF4EA
:10C9A00025AF104619462CE795EA0C0F06D152EA3E
:10C9B00003353FF4FDAE1046194622E750EA410622
:10C9C00018BF52EA43067FF4C5AE50EA41047FF433
:10C9D0000DAF52EA43057FF4EBAE12E74FF0FF3C98
:10C9E00006E000BF4FF0010C02E000BF4FF0010C69
:10C9F0004DF804CD4FEA410C7FEA6C5C4FEA430CE2
:10CA000018BF7FEA6C5C1BD001B050EA410C0CBF30
:10CA100052EA430C91EA030F02BF90EA020F002092
:10CA2000704710F1000F91EA030F58BF994208BFF9
:10CA300090422CBFD8176FEAE37040F001007047B6
:10CA40004FEA410C7FEA6C5C02D150EA013C07D10D
:10CA50004FEA430C7FEA6C5CD6D152EA033CD3D058
:10CA60005DF8040B704700BF8446104662468C4652
:10CA70001946634600E000BF01B5FFF7B7FF002885
:10CA800048BF10F1000F01BD4DF808EDFFF7F4FFAE
:10CA90000CBF012000205DF808FB00BF4DF808ED39
:10CAA000FFF7EAFF34BF012000205DF808FB00BF5C
:10CAB0004DF808EDFFF7E0FF94BF012000205DF87E
:10CAC00008FB00BF4DF808EDFFF7CEFF94BF012033
:10CAD00000205DF808FB00BF4DF808EDFFF7C4FF2C
:10CAE00034BF012000205DF808FB00BF4FEA410C75
:10CAF0007FEA6C5C02D150EA013C0AD14FEA430C58
:10CB00007FEA6C5C02D152EA033C02D14FF0000094
:10CB100070474FF0010070474FEA410212F50012D2
:10CB200015D211D56FF47873B3EB625212D94FEA74
:10CB3000C12343F0004343EA505311F0004F23FA5E
:10CB400002F018BF404270474FF00000704750EAB3
:10CB5000013005D111F0004008BF6FF00040704770
:10CB60004FF00000704700BF4A0011D212F50012CA
:10CB700011D20DD56FF47873B3EB62520ED44FEA35
:10CB8000C12343F0004343EA505323FA02F07047B5
:10CB90004FF00000704750EA013002D14FF0FF30F3
:10CBA00070474FF0000070474FEA4102B2F1E04396
:10CBB00024BFB3F5001CDCF1FE5C0DD901F0004C84
:10CBC0004FEAC0024CEA5070B2F1004F40EB8300D4
:10CBD00008BF20F00100704711F0804F21D113F100
:10CBE0003872BCBF01F00040704741F480114FEA39
:10CBF0005252C2F11802C2F1200C10FA0CF320FAC2
:10CC000002F018BF40F001004FEAC1234FEAD323DE
:10CC100003FA0CFC40EA0C0023FA02F34FEA430348
:10CC2000CCE77FEA625307D150EA01331EBF4FF0D1
:10CC3000FE4040F44000704701F0004040F0FE40EC
:10CC400040F40000704700BF80F0004002E000BFE9
:10CC500081F0004142001FBF5FEA410392EA030FE7
:10CC60007FEA226C7FEA236C6AD04FEA1262D2EB31
:10CC70001363C1BFD218414048404140B8BF5B4236
:10CC8000192B88BF704710F0004F40F4000020F0CF
:10CC90007F4018BF404211F0004F41F4000121F0E5
:10CCA0007F4118BF494292EA030F3FD0A2F101022F
:10CCB00041FA03FC10EB0C00C3F1200301FA03F16D
:10CCC00000F0004302D5494260EB4000B0F5000F90
:10CCD00013D3B0F1807F06D340084FEA310102F14F
:10CCE0000102FE2A51D2B1F1004F40EBC25008BF01
:10CCF00020F0010040EA03007047490040EB0000CB
:10CD0000013A28BFB0F5000FEDD2B0FA80FCACF1CB
:10CD1000080CB2EB0C0200FA0CF0AABF00EBC250F8
:10CD200052421843BCBFD0401843704792F0000FE6
:10CD300081F4000106BF80F400000132013BB5E739
:10CD40004FEA41037FEA226C18BF7FEA236C21D0AF
:10CD500092EA030F04D092F0000F08BF0846704714
:10CD600090EA010F1CBF0020704712F07F4F04D1E2
:10CD7000400028BF40F00040704712F100723CBFF5
:10CD800000F50000704700F0004343F0FE4040F41F
:10CD9000000070477FEA226216BF08467FEA2363DD
:10CDA0000146420206BF5FEA412390EA010F40F4C8
:10CDB000800070474FF0000304E000BF10F0004314
:10CDC00048BF40425FEA000C08BF704743F09643FB
:10CDD00001464FF000001CE050EA010208BF704716
:10CDE0004FF000030AE000BF50EA010208BF70479D
:10CDF00011F0004302D5404261EB41015FEA010CB2
:10CE000002BF84460146002043F0B64308BFA3F1A9
:10CE10008053A3F50003BCFA8CF2083AA3EBC2538B
:10CE200010DB01FA02FC634400FA02FCC2F12002AA
:10CE3000BCF1004F20FA02F243EB020008BF20F0E1
:10CE40000100704702F1200201FA02FCC2F1200247
:10CE500050EA4C0021FA02F243EB020008BF20EA3C
:10CE6000DC7070477BB972B90029BEBF00204FF05B
:10CE7000004106E008BF00281CBF6FF000414FF0E2
:10CE8000FF3000F007BAADF1080C6DE904CE0029BF
:10CE900009DB002B1ADB00F095F8DDF804E0DDE992
:10CEA000022304B07047404261EB4101002B1BDBC1
:10CEB00000F088F8DDF804E0DDE9022304B0404228
:10CEC00061EB4101524263EB43037047524263EB13
:10CED000430300F077F8DDF804E0DDE9022304B055
:10CEE000404261EB41017047524263EB430300F063
:10CEF00069F8DDF804E0DDE9022304B0524263EB97
:10CF00004303704753B94AB9002908BF00281CBF22
:10CF10004FF0FF314FF0FF3000F0BCB9ADF1080C1D
:10CF20006DE904CE00F04EF8DDF804E0DDE90223FF
:10CF300004B07047430803F05533C01A830803F068
:10CF4000333300F03330184400EB101000F00F3092
:10CF500000EB002000EB0040000E704707EE900A47
:10CF6000F5EEC07AF1EE10FA01D400F00BB8F1EE54
:10CF7000677A08B517EE900A00F004F8404261EBBA
:10CF8000410108BDD0B5FFF7BFFA0C4B00220646A1
:10CF90000F46FFF711FBFFF7E7FD0446FFF792FA94
:10CFA000074B0022FFF708FB02460B463046394686
:10CFB000FFF74AF9FFF7D8FD2146D0BD0000F03D4C
:10CFC0000000F0412DE9F047089D04468E46002BF5
:10CFD0004DD18A42944669D9B2FA82F252B101FA2D
:10CFE00002F3C2F1200120FA01F10CFA02FC41EA3D
:10CFF000030E94404FEA1C48210CBEFBF8F61FFAC2
:10D000008CF708FB16E341EA034306FB07F199425C
:10D010000AD91CEB030306F1FF3080F01F8199420F
:10D0200040F21C81023E63445B1AA4B2B3FBF8F0E9
:10D0300008FB103344EA034400FB07F7A7420AD970
:10D040001CEB040400F1FF3380F00A81A74240F298
:10D0500007816444023840EA0640E41B00261DB103
:10D06000D4400023C5E900433146BDE8F0878B4238
:10D0700009D9002D00F0EF800026C5E900013046F7
:10D080003146BDE8F087B3FA83F6002E4AD18B42D1
:10D0900002D3824200F2F980841A61EB030301207B
:10D0A0009E46002DE0D0C5E9004EDDE702B9FFDE67
:10D0B000B2FA82F2002A40F09280A1EB0C014FEA12
:10D0C0001C471FFA8CFE0126200CB1FBF7F307FB6F
:10D0D000131140EA01410EFB03F0884208D91CEB12
:10D0E000010103F1FF3802D2884200F2CB804346AF
:10D0F000091AA4B2B1FBF7F007FB101144EA01448E
:10D100000EFB00FEA64508D91CEB040400F1FF311C
:10D1100002D2A64500F2BB800846A4EB0E0440EA0A
:10D1200003409CE7C6F12007B34022FA07FC4CEA13
:10D13000030C20FA07F401FA06F31C43F9404FEA06
:10D140001C4900FA06F3B1FBF9F8200C1FFA8CFE1B
:10D1500009FB181140EA014108FB0EF0884202FA6F
:10D1600006F20BD91CEB010108F1FF3A80F0888030
:10D17000884240F28580A8F102086144091AA4B2ED
:10D18000B1FBF9F009FB101144EA014100FB0EFE6E
:10D190008E4508D91CEB010100F1FF346CD28E459D
:10D1A0006AD90238614440EA0840A0FB0294A1EB2E
:10D1B0000E01A142C846A64656D353D05DB1B3EB8B
:10D1C000080261EB0E0101FA07F722FA06F3F140BB
:10D1D0001F43C5E9007100263146BDE8F087C2F162
:10D1E0002003D8400CFA02FC21FA03F391400143DA
:10D1F0004FEA1C471FFA8CFEB3FBF7F007FB103613
:10D200000B0C43EA064300FB0EF69E4204FA02F4BE
:10D2100008D91CEB030300F1FF382FD29E422DD911
:10D22000023863449B1B89B2B3FBF7F607FB163346
:10D2300041EA034106FB0EF38B4208D91CEB0101C6
:10D2400006F1FF3816D28B4214D9023E6144C91A46
:10D2500046EA004638E72E46284605E70646E3E656
:10D260001846F8E64B45A9D2B9EB020864EB0C0E60
:10D270000138A3E74646EAE7204694E74046D1E76F
:10D28000D0467BE7023B614432E7304609E764441D
:10D29000023842E7704700BF02E000F000F8FEE706
:10D2A00072B6374880F30888364880F309883648D4
:10D2B0003649086040F20000CCF200004EF63471AE
:10D2C000CEF200010860BFF34F8FBFF36F8F40F2C3
:10D2D0000000C0F2F0004EF68851CEF20001086066
:10D2E000BFF34F8FBFF36F8F4FF00000E1EE100AD6
:10D2F0004EF63C71CEF200010860062080F31488DF
:10D30000BFF36F8FAEF0C8FAADF0A8FB4FF0553009
:10D310001F491B4A91423CBF41F8040BFAE71D49E3
:10D32000184A91423CBF41F8040BFAE71A491B4ADC
:10D330001B4B9A423EBF51F8040B42F8040BF8E72E
:10D3400000201849184A91423CBF41F8040BFAE703
:10D35000AEF0A6FAADF0D6FB144C154DAC4203DA94
:10D3600054F8041B8847F9E702F030F8114C124DCD
:10D37000AC4203DA54F8041B8847F9E7AEF08EBAE2
:10D38000000600200022002000C0000808ED00E098
:10D39000000000200006002068310E080022002056
:10D3A000002B0020002B0020204E0120E0C10008AF
:10D3B00040C2000840C2000840C200082DE9F04FFA
:10D3C0002DED108AC1F80CD0C3689D46BDEC108AC3
:10D3D000BDE8F08F002383F311882846A047002082
:10D3E000ADF0C2F8FEE7ACF057FF00DFFEE700004B
:10D3F00001F0FF01102A2BDB10F0070F08D010F806
:10D40000013B013A8B422DD010F0070F42B3F6D109
:10D41000F0B441EA012141EA014122F007047FF022
:10D4200000070023F0E80256083C85EA010586EA79
:10D43000010685FA47F5A3FA87F586FA47F6A5FAB5
:10D4400087F68EB9EED1F0BC01F0FF0102F00702C1
:10D4500032B110F8013B013A83EA010313B1F8D16C
:10D460000020704701387047002D06BF354603384D
:10D47000073815F0010F07D1013015F4807F02BF86
:10D48000013015F4C03F0130F0BC0138704700BFD7
:10D4900010F8012B11F8013B012A28BF9A42F7D05E
:10D4A000D01A7047034613F8012B002AFBD1181A33
:10D4B0000138704738B50022002304460D46FFF7B7
:10D4C000EDFA28B920462946BDE8384000F00AB8F0
:10D4D000204605F1004100F005F8404261EB4101B2
:10D4E00038BD00BFD0B50C4B002206460F46FFF7F3
:10D4F00063F8FFF739FB0446FEF7E4FF074B002211
:10D50000FFF75AF802460B4630463946FEF79CFEB6
:10D51000FFF72AFB2146D0BD0000F03D0000F0419E
:10D520007FB50391402105467EF06CFC039A18B943
:10D530000124204604B070BD134E039296F9F230D8
:10D54000002BF5D05CF052FF437A039A53B95CF09C
:10D550004DFF847A039A2CB90C4B402128467EF06B
:10D5600059FCE6E7D6F8D439B6F9F410B3F9063029
:10D570009942DDDD064B00934021064B28467EF0A4
:10D5800049FC0024D5E700BF084B0020E43D0C080F
:10D59000033E0C08F13D0C08F0B50D4691B020217A
:10D5A00004467EF02FFC002800F09E804F4E96F936
:10D5B000F230ABB1D6F8D429B6F9F430B2F90A108A
:10D5C00003F10A02914203DD40F28D32934207DCFF
:10D5D000474B2A46202120467EF01CFC002081E09B
:10D5E00096F9E130022B05D1424B2A4620212046F4
:10D5F0007EF010FCB6F8B430A3F57A739BB241F616
:10D60000583293420DD83C4F96ED487AD7F8983867
:10D61000D3ED097AB4EEE77AF1EE10FA03DD374B79
:10D62000D7E7374BD5E796ED497AD3ED0B7AB4EED1
:10D63000E77AF1EE10FAF2DCB6F9EE30002B01DCFD
:10D64000304BC6E796F880210D2A04D84FF42153B9
:10D65000D340DA071DD42C480EF028FC012806D14F
:10D66000D7F8A40878F0EAFEA8B101281CD0002160
:10D670002E2204A80391B2F04FF82449D7F8A0084D
:10D68000322303AA78F0D4FA18BB03AB0093204BE3
:10D6900004E0204B9DE7204B0093204B2A4620219D
:10D6A00020467EF0B7FB99E796F8F43ADB070ED5F3
:10D6B0001B48192148F0E6FA48B11948D6F8CC6061
:10D6C000192148F005FB8642D1DD164BE4E7164BE5
:10D6D000E2E71649D7F89808322303AA75F0A2FCAE
:10D6E0000028D2D011B0F0BD0120FBE7084B00208C
:10D6F0000C3E0C081F3E0C08086B0020573E0C081F
:10D70000473E0C08713E0C0800840020003F0C08C6
:10D71000043F0C08863E0C08CB3E0C08A63E0C08C5
:10D7200050380020EA3E0C08DB3E0C08163F0C087F
:10D7300007B504487AF03CFA00F0010003B05DF848
:10D7400004FB00BF847300202DE9F043DFF87481EF
:10D750000446D8F8580E036899B01B690D469847DF
:10D76000814614F0C7FA002107462E220CA80B911F
:10D77000B1F0D2FF32230BAA4946384613F02AFEF5
:10D78000064648B9434A0BAB294620467EF0B0FD19
:10D79000304619B0BDE8F083A8F1480065F0AAFE54
:10D7A000B9F1000F0BD0A8F5005011F001FA80B9C3
:10D7B000394A294620467EF09BFD0026E8E710F016
:10D7C000060FE5D0A8F5005011F0F2F908B9334A78
:10D7D000EFE703A9384613F037FC28B19DF80D3068
:10D7E0005B0601D52E4AE4E7D8ED447AF5EEC07A1F
:10D7F000F1EE10FA4FF0000335DD089309930A9318
:10D800000DF1200907AB019305AA06AB04A9CDF8D9
:10D810000090384613F0CCFF48462BF0FDFAD8EDC7
:10D82000447AB4EEE70AF1EE10FA01DB1D4AC0E7D4
:10D830009DED057AF4EEC77AF1EE10FA01D81A4A96
:10D84000B7E79DED047AF4EEC77AF1EE10FA01D84D
:10D85000164AAEE79DED067AF4EEC77AF1EE10FABD
:10D8600001D8134AA5E707F51971124804F0E4FF3F
:10D87000074608B1104A9CE710490E4804F0DCFF47
:10D88000002885D00E4A294620467EF031FD3E46CE
:10D890007EE700BF1C3F0C08253F0C083C3F0C08EE
:10D8A000623F0C08703F0C08853F0C089B3F0C083A
:10D8B000B13F0C08082B0020C53F0C0874730020F2
:10D8C000E23F0C08084B002008B5064B93F8713E68
:10D8D0009B0704D5044A7EF00BFD002008BD012003
:10D8E000FCE700BF084B002004400C0870B50C4C4E
:10D8F0000546D4F8580E03685B690E46984710B188
:10D900000124204670BDA4F5005011F063F90446CF
:10D910000028F5D1034A314628467EF0E9FCF0E7BD
:10D92000084B002014400C082DE9B0463F4DD5F8B7
:10D930007C3E814693F8CF008EB08A4688BB5CF06F
:10D9400055FD20215DF028FD70BB012495F84E3E69
:10D9500003F01403142B05D1354A514648467EF096
:10D96000C7FC0024514648467FF0CAFA002188428D
:10D970004FF02E0202A808BF0C460191B1F0CCFE78
:10D98000D5F87C0E036801AA1B683221984705462A
:10D99000F8B9284A01AB514648467EF0A9FC2C460E
:10D9A00020460EB0BDE8B0865CF020FD1F215DF082
:10D9B000F3FC30B1204A514648467EF099FC0024E1
:10D9C000C4E75CF013FDA5215DF0E6FC0028F1D171
:10D9D000BBE7002CE4D0D9F808303BB9D9F80030C7
:10D9E00051461B6B484698470446D9E7514648467E
:10D9F000FFF7D2FD514607464846FFF765FF38401E
:10DA0000C4B251464846FFF78BFD51460440484694
:10DA1000FFF76CFF5146044048467EF061FD5146D9
:10DA2000044048467FF084FA0440B9E7084B0020E0
:10DA300042400C085A400C0828400C0808B5FFF773
:10DA400073FF054A92F84C1E60F3041182F84C1ED5
:10DA5000024A907108BD00BF084B0020A587002036
:10DA6000F7B505460F467EF009FA044678B1022163
:10DA700028467EF0C7F9064648B115487AF098F86E
:10DA8000C205C0F30723C0F3002403D53446204663
:10DA900003B0F0BD9B07F9D50D487AF097F80D4B10
:10DAA00003F50463D3ED007AF8EEE77A30EE670A07
:10DAB000DFED097AB0EEC00AB4EEE70AF1EE10FA33
:10DAC000E4DD064B3A46022128467EF0A3F9DEE764
:10DAD00084730020086B00200000C84268400C08D6
:10DAE000F8B504460F467EF0A3FB102105462046FC
:10DAF0007EF088F958B12046FFF71AFE064630B985
:10DB0000044B3A46102120467EF084F935462846DB
:10DB1000F8BD00BF7C400C0870B505460E467EF08F
:10DB200015F9044678B1802128467EF06BF950B192
:10DB3000074B93F8653343B1064B324680212846A4
:10DB40007EF068F90024204670BD0446FBE700BF64
:10DB5000085B002090400C0838B50D4D0446D5F800
:10DB6000A40878F06BFC012810D0D5F8A40878F050
:10DB700065FC022804D02046BDE838407EF0E8B8B5
:10DB800004480EF093F90128F5D138BD0020FCE7D8
:10DB9000086B002000840020F0B5114C85B0D4F84B
:10DBA000CC390093D4F8D0390193D4F8D439029306
:10DBB0006A46D4F8D839039306460F467FF052F9E7
:10DBC0003946054630467EF061FA94F84C3E2840CE
:10DBD00060F3C303C3F3C00084F84C3E05B0F0BD4E
:10DBE000084B00202DE9F84306462748DFF8A890A7
:10DBF000DFF8A8800F4665F07DFC0446D9F8580E82
:10DC000003681B699847054630B914F0060F03D125
:10DC1000D9F88C3E022B09D1394630467EF054F9B2
:10DC2000054618B9002488F807400AE0394630460E
:10DC3000FFF78AFD04460028F4D02DB9012388F8A7
:10DC400007302046BDE8F883082130467EF0DAF838
:10DC50000028F3D00D481EF02FFD0028EED00C4B0D
:10DC600093F8C023B02101FB023203F50053B2F850
:10DC7000CE21B3F9E2309A42E0DD064B3A46082164
:10DC800030467EF0C7F8CDE7C04A0020182C0020AF
:10DC9000082B0020A4400C08084B0020A58700207A
:10DCA0002DE9F3410F46054614F024F8804613F0A1
:10DCB0008DF9044640B9564A012128467EF018FBEA
:10DCC000204602B0BDE8F081524ED6F8580E0368E7
:10DCD00039469B699847044658B9D6F8580E0368E8
:10DCE0009B6B98474C4A0346012128467EF000FB77
:10DCF000E6E7AB68002BE3D0102128467EF082F8DF
:10DD000010B3D8ED917A98ED900A20EE270AAFF083
:10DD100083FADFED427AB6F9B43020EE270ADFED60
:10DD2000407A20EE270A07EE903AF8EEE77AB4EE52
:10DD3000E70AF1EE10FA07DD3A4B012210212846DE
:10DD40007EF068F80024BBE7402128467EF05AF8B0
:10DD5000002833D0012F1CD0232F1AD0042F18D025
:10DD6000D6F8D4393048B3F9083000EE103AB8EE9E
:10DD7000C00A00F0B7FBB5EEC00AF1EE10FA2BDDD9
:10DD80002A4B009301222A4B402128467EF042F87C
:10DD9000D8E7D6F8580E03681B68984704280DD0BA
:10DDA000D6F8580E03681B689847142806D0D6F892
:10DDB000580E03681B6898470328D1D11D4B1B6878
:10DDC000D86A03681B6A98470128014619D11A4A84
:10DDD00028467EF08DFAB5E7D6F8580E03685B69E1
:10DDE000984730B1D6F8D439B3F90830002BE5DDC7
:10DDF000C6E7D6F8580E03681B6898470B28DDD194
:10DE0000F0E73946284602B0BDE8F0417EF040BE5A
:10DE1000B4400C08084B0020C5400C08E02E6542B9
:10DE20000000C842D9400C08082B0020033E0C0813
:10DE3000E1400C08F8850020ED400C0870B505465F
:10DE40000E46FFF781FC084B0446D8713146284640
:10DE5000FFF74CFD31460028284608BF00247EF01D
:10DE6000D5FF204070BD00BFA5870020F8B54E4FFC
:10DE70003B78002B40F095804C4CD4F87C5E95F8B4
:10DE8000CF5001263E7015B13B702846F8BD7FF09B
:10DE9000F7F8054630B9464A3870137843F0010365
:10DEA0001370F2E751F050FB314650F039FBA4F506
:10DEB000005006F081FC3F4B1E710B2643F03AFDEB
:10DEC000013E43F0D5FC16F0FF06F7D13A4800F0CA
:10DED000EDFE13F00FFFD0F8F821C4F8A42E90F84F
:10DEE0007432DA074BD413F0EBFA51F02DFB3C21DE
:10DEF00051F0C2F804F6646300221A6000212E4833
:10DF000000F068FF2C4810F053FE01462B487DF0CE
:10DF100011FD2B4B1B68D86A036801211B689847C9
:10DF2000D4F87C0E03685B6A98470121D4F87C0E14
:10DF30007AF018FE51F008FB0646D4F8580E036834
:10DF40001B68984794F874200146304650F0C4FC92
:10DF5000194806F023FC4DF049FA4CF097FD0023D8
:10DF60003B7087F01FFD174BC3F8B008B4F84E3E66
:10DF700023F4087343F02003A4F84E3E85E79B0783
:10DF8000BCD431460C4804F0D5FC0F4879F01EFE95
:10DF9000DFED0E7A20EE270A04F6646383ED000AB3
:10DFA000ACE7002571E700BF002B0020084B0020E4
:10DFB000C4870020A5870020082B00207453002070
:10DFC000F8850020086B0020847300200AD7233CCA
:10DFD0002DE9F043384DD5F87C3E93F8CF3087B02B
:10DFE000002B66D062B1012901D0232908D195F90F
:10DFF0004C3E002B04DB0024204607B0BDE8F08334
:10E000007FF002F904460028F5D013F073FE0746AE
:10E010001DF046F88046384612F0DCFCD8B198F97D
:10E020002430022B17D100264FF00009F1B203AAC9
:10E0300038460191CDF80C90CDF81090CDF81490A1
:10E0400013F064F8019918B103AA40461CF0D8FCFB
:10E050000136032EEAD1194BD5F8580E984224D137
:10E060000AF044FA1648012106F0A8FD14480121DF
:10E0700006F0E2FC0021D5F87C0E7AF073FD114821
:10E080002DF0CCF951F060FA002150F049FA0E4B16
:10E090001B68D86A036800211B68984795F84E3EB4
:10E0A0006FF3451385F84E3EA6E718460AF022FAAC
:10E0B000D8E70124A0E700BF084B0020E87F00203C
:10E0C000082B0020547E0020F88500200020704797
:10E0D00010B5064CD4F8580E03685B6A984718B11F
:10E0E000D4F87C3E93F8CF0010BD00BF084B002051
:10E0F00030B52DED028B89B00C46B0EE408AFFF7AB
:10E10000E7FF0546002838D0B4EE488AF1EE10FA51
:10E110007CBFDFED1C8ADFED1C7A226863689FED0F
:10E120001A0A68BFDFED198A029278BF68EE288A62
:10E1300002A878BF68EEA78AD4ED027A0393F1EEC5
:10E14000677ACDED047A2AF069FAB4EE488A0022A3
:10E150000123F1EE10FACDE900238DED050ACDED96
:10E16000060A9FED0A0A0A488DED071AF0EE680AC2
:10E1700068BF134605A90BF02DFF284609B0BDEC7A
:10E18000028B30BDE02E65420000C8420000000056
:10E19000A4820020014865F075BA00BFC04A002083
:10E1A00008B500F5005090F84C3EC3F340128A4287
:10E1B0000BD061F3451380F84C3E31B151F0C4F9F6
:10E1C000BDE808400F2150F057BF08BD70B500F5FD
:10E1D00000560546D6F88C3E8B420C4612D00129DB
:10E1E00011D0022916D059B951F0AEF91B2150F0C7
:10E1F00043FF0D4A05F531500621083054F06EF901
:10E20000C6F88C4E70BD51F09FF91A2150F034FFC2
:10E21000064AEFE7012100F0DDFD51F095F91D21DF
:10E2200050F02AFF024AE5E754410C0869410C0806
:10E2300064410C0810B500F500520C4692F8713E8E
:10E2400003F00101A14209D064F3000382F8713E9A
:10E25000DB0704D405F098FE024B9C7210BD06F05B
:10E260006BF8F9E7A587002000F5005090F8713EA3
:10E2700061F3410380F8713E014B1973704700BF91
:10E28000A587002010B504465CF0B0F820215DF0B1
:10E2900083F804F50053003893F84E2E18BF012080
:10E2A00060F3820283F84E2E10BD000010B50446C4
:10E2B0004DF09CF804F50052436FD2F87C2E04F523
:10E2C0008040D360D0F898285364D0F8A028C2F8D2
:10E2D0000833D0F898080368BDE810401B6D184754
:10E2E00070B52DED028B00F500550446D5F87C3E47
:10E2F00093F8CF30002B72D095F94C3E002B6EDB9B
:10E3000000F5A04393F87832002B68D1D5F8580E69
:10E3100003685B699847002861D1324BD3F8580EE7
:10E3200003681B6898470B2859D004F580469FED79
:10E330002E7AD6F8A038D3EDD67AF0EEE77AF4EE5E
:10E34000C77AF1EE10FA4AD5D5F87C0E443053F076
:10E3500047FD0346DFED250A93ED000A9E20B7EE48
:10E36000001A26F063FFB5EEC00AF1EE10FA36DDB2
:10E3700004F590407C3079F035FCDFED1D7AB0EE8D
:10E38000C00AB4EEE70AF1EE10FA28D5D6F89808DC
:10E3900004F580540368D4EDF67AD3F88C30B8EEE7
:10E3A000E78A984738EE400ADFED127AB0EEC00AED
:10E3B000B4EEE70AF1EE10FA11D5D4F8DC3340F2EE
:10E3C000E63203F2F313934209D8BDEC028BD5F881
:10E3D0007C0E9FED090ABDE870407BF047BEBDECA6
:10E3E000028B70BD084B00200000003400000000CC
:10E3F000000070420000FA430AD7233C08B500F53C
:10E400000050D0F87C0E0368DB689847F6EE007A7F
:10E4100020EE270AB5EEC00AF1EE10FA48BF9FEDD4
:10E42000010A08BD0000000038B52DED028B00F593
:10E4300080450446D5F89838DFED110A93ED2E0A91
:10E4400004F500546F20B7EE001A26F0EFFED4F862
:10E450007C0ED5F8A0580368DB68B0EE408A984778
:10E4600038EE400ABDEC028BDFED067A05F5077544
:10E47000284620EE270ABDE838406BF04FBB00BFAE
:10E480000000000000007A4400F5805000F586632B
:10E4900000F23C40D3ED005AD2ED007AD0ED006A94
:10E4A00091ED006A26EEE77A67EEA57AA6EE257A68
:10E4B000E6EE267A81ED007AC2ED007A7047000020
:10E4C00000F50050B0F9203933B9B0F9EE0000285A
:10E4D000B8BF404280B2704783EAE370A0EBE370BC
:10E4E000F8E7000030B52DED028B00F5005483B045
:10E4F00094F8711E11F00101054605D09FED2B0A1D
:10E5000003B0BDEC028B30BD94F84D3E01915B072A
:10E51000F4D5DFED278ADFED250AB0EE681A4C202E
:10E5200026F084FE0199B4F9F6004FF4C872B0EEFB
:10E53000408A26F0B9FEA4F8F60028460FF0F2FF54
:10E54000B4F9F63007EE900AB8EEE77A07EE903AA3
:10E55000F8EEE77A77EE676AB4EEE68AF1EE10FA43
:10E560000DD52846FFF7ACFF07EE900A38EE668A15
:10E57000B8EEE70A20EE088A88EE260AC0E777EEB2
:10E58000877AB4EEE78AF1EE10FAB7DDB4F9EE302F
:10E5900000EE103A38EE678AB8EEC00A78EEE77AF5
:10E5A00020EE088A88EE270AAAE700BF00000000D4
:10E5B00000007A4400207047002070470020704718
:10E5C0007047000000F50050D0F8580E03681B6833
:10E5D00018470000034808603021117008221A60B3
:10E5E000704700BF18450C0800F50050D0F8580ED1
:10E5F00003685B6C1847000000F50050D0F8580E17
:10E6000003681B6C1847000000F5005300F5A64096
:10E61000D3F8583E10301B1A58425841704700003A
:10E6200010B500F500500C46D0F8580E03685B6D2D
:10E63000984707EE900A9FED057AF8EE677A012079
:10E6400067EE877AC4ED007A10BD00BF0AD7233C7D
:10E6500010B500F500500C46D0F8580E03681B6D3D
:10E66000984707EE900A9FED057AF8EEE77A0120C9
:10E6700067EE877AC4ED007A10BD00BF0AD7233C4D
:10E6800010B500F500500C46D0F8580E03689B6D8D
:10E690009847DFED047A20EE270A012084ED000A76
:10E6A00010BD00BF0AD7233C5EF0E0BA11F092B96A
:10E6B00062F056BA5DF074BE4CF0E4BD24F064BD67
:10E6C00050F0B0B817F082B85BF032BB59F03ABCEA
:10E6D0000FF0C2BB10F00EB906F026BC11F010B955
:10E6E00005F0A8BC05F00EBA05F034B915F0EEBE81
:10E6F00060F05AB80EF038BAFFF7F2BD0FF0E4BC84
:10E700000FF066BF03F088B80FF06CBC0FF0EABBE7
:10E710005BF0ECBD1FF0C0BE02F024BC10F036B8B8
:10E7200006F0B8BB04F028B906F010BD05F0A4B996
:10E7300006F03AB90FF020BBFFF7B8BD24F0EEBFEA
:10E7400005F078BE09F01ABB09F0AABC09F03EBC7E
:10E750000A4A92F94C2E002A0B4605DA00228A60FA
:10E760004A600A600120704700F58040D0F8982880
:10E77000543207CA83E80700F4E700BF084B0020C3
:10E7800070B51F4B036000F500530446D3F8E00D4D
:10E790001C4AC3F8482C08B119F08CF91A4B2360B5
:10E7A00004F5805393F8AC2D42B9D3F8A85D2DB190
:10E7B000284623F045FB284619F076F904F58750E2
:10E7C000103072F047F904F6F8705EF029F804F69C
:10E7D000FC4504F69C46B54204D0183D284622F07C
:10E7E000E3FFF8E7094BC4F8D83804F6CC1053F02F
:10E7F00003F804F5146052F0FFFF204670BD00BF1F
:10E80000E8480C08D0460D0810260D08B0ED0C089D
:10E8100038B5444B044640F8043B5EF047FB04F136
:10E82000100016F0A5FC04F160004CF0C9FA04F5E4
:10E8300088701DF09DFE04F58D6015F0DDF904F281
:10E8400094501BF067FE04F6D80024F051FB04F648
:10E8500078405EF009F904F6485047F039F904F6BB
:10E86000F8705DF0C5FF04F58150143017F082FF99
:10E8700004F58750103072F0D9F804F588500C3048
:10E880004CF04CFE04F58B505FF0ECFC04F580532B
:10E890000025254A83F8845104F58C5004F58C53E7
:10E8A00004331430136042F069FE04F58F5029469A
:10E8B000083011F087FD04F5C15018306BF0ECF909
:10E8C00004F5E1501C306FF095F904F5EA5014306E
:10E8D00071F066FA04F5ED50183071F091FE04F510
:10E8E000F05011F069FA04F5FB506BF075FE04F579
:10E8F000FD50183064F066FD04F5005304F5025035
:10E9000083F87450094D0C3072F06AFC2B6813B117
:10E91000074887F015F82046064945F0DDFE2C60D3
:10E92000204638BD10260D08189100208088002050
:10E9300078410C0858250D0810B50FF06DFD5BF0FF
:10E9400055FD0368BDE810405B681847FFF7F4BF4A
:10E9500010B5044606F088F8204610F053F920461A
:10E9600003F0DEFD2046BDE8104003F043BF000089
:10E97000FFF7EEBF70B500F53A5528350446284636
:10E9800016F0F0FA1CF08CFB90F9213093B390F85C
:10E9900040337BB304F5005304F29456D3F87C0E55
:10E9A000443053F01DFA0346DFED130A93ED000ADD
:10E9B0009E20B7EE001A26F039FC94F9C835012BD9
:10E9C000284608BF86ED0E0A002116F0CBF8DFEDD1
:10E9D0000B7A04F2EC7494ED287A20EE270ADFED2E
:10E9E000087AA7EE270A304684ED280ABDE8704071
:10E9F0001CF066BA70BD00BF00000000CDCCCC3D5D
:10EA00006666663FFFF7B6BF10B50121044610F0F9
:10EA100035F960B1114BD3F8580E03689B6A9847DB
:10EA200028B9204602F07CF9204602F0B1F94FF4F3
:10EA30000011204610F022F918B125F0D7FE24F07D
:10EA400077F94FF48021204610F018F928B125F00D
:10EA5000CDFEBDE8104024F079B810BD084B002071
:10EA6000FFF7D2BF38B50221044610F007F970B1A4
:10EA70000121204610F002F948B9484BD3F8580E4E
:10EA800003689B6A984710B9204602F049F90121B2
:10EA9000204610F0F3F848B9404BD3F8580E0368FD
:10EAA0009B6A984710B9204602F072F9012120466E
:10EAB00010F0E4F810B9204602F0C4F94FF4003128
:10EAC000204610F0DBF830B104F50053D3F87C0E8B
:10EAD00003681B6C98474021204610F0CFF858B1CE
:10EAE00004F527551C3528464EF0A0FF94F9F83F51
:10EAF00013B128464FF0DCF84FF48061204610F047
:10EB0000BDF820B104F527501C304FF029F8202122
:10EB1000204610F0B3F868B104F50055D5F8580E4A
:10EB200003681B699847D8B104F58043D3F8A0085F
:10EB300076F0EEF88021204610F0A0F8E8B125F03C
:10EB400055FE24F027F81021204610F097F818B34E
:10EB500004F58044D4F89808BDE8384073F0B4B8A0
:10EB600020460BF093FF0028DED1D5F8580E03683D
:10EB70005B6998470028D7D0DCE74FF48021204616
:10EB800010F07CF80028DAD14FF40021204610F074
:10EB900075F80028D3D1D6E738BD00BF084B002058
:10EBA000FFF760BF10B50121044610F067F810B1FF
:10EBB000204602F047F98021204610F05FF858B156
:10EBC0004FF48021204610F059F828B925F00EFEA8
:10EBD000BDE8104023F0BABF10BD0000FFF7E2BF50
:10EBE00010B5044605F0F4FC204605F057FB20461E
:10EBF00005F032FD204605F04BFE204610F00EFFDA
:10EC00002046BDE8104003F067BC0000FFF7E8BFF6
:10EC100070B54FF6FF71044610F030F804F500555A
:10EC200028B1D5F84C2E0721204602F03DF9D5F841
:10EC30007C3E93F8CF307BB92046FFF723FBD5F815
:10EC40007C0E95F80A21036895F88011DB699847D6
:10EC5000D5F87C0E7BF0D8F95CF074FE204610F0FD
:10EC6000CFFE95F84C3E0F4A04F58044DB43D4F8C0
:10EC70009858C3F3C01353712B685E6E4CF0B6FB0B
:10EC80004CF030F82846B047D4F8A0484CF0AEFB22
:10EC900004F507744CF026F82046BDE870406AF091
:10ECA000A1BD00BFA5870020FFF7B2BF2DE9F0414D
:10ECB00000F5805600F5005406F5866304F5696892
:10ECC0001B68C8F8003006F23C4304F694671B68E2
:10ECD0003B600546D6F8E00300F58C40503026F046
:10ECE00079FA04F69C63C4F8980ED8F800201A60EC
:10ECF00004F56A643B6823604FF6FF7128460FF005
:10ED0000BDFF38B1D6F8E02328460921BDE8F0411F
:10ED100002F0A0B8BDE8F08110B500F50053D3F8BB
:10ED20008C4E002C55D093F84D2ED10751D56FF352
:10ED3000000283F84D2ED3F8D029D3F8CC19B2F9BC
:10ED40000820012C06EE902AB1F908400BBF03F50C
:10ED5000696203F69C62D2ED007AD2ED007A0CBFB4
:10ED600003F6946203F56A62D2ED005A0CBFF8EE26
:10ED7000E66AF8EEE66A07EE104A25EEE66AB8EEB5
:10ED8000C77A00F58050A7EE276A00F5866200F288
:10ED90003C4067EEA67AD2ED006AE7EE257A90ED68
:10EDA000007A27EE877AA6EE267ABDEEC77A17EEAE
:10EDB000104A0C8192ED007AD3F8D03967EE877A49
:10EDC00090ED007AE6EE477AFDEEE77A17EE902AAC
:10EDD0001A8110BD38B505462DED028B00F50054A3
:10EDE00071B128460FF092F9D4F8983E1B1A03F23D
:10EDF000F31340F2E63293420CD8BDEC028B38BDDF
:10EE0000D4F88C3E022BF8D10FF062F9B0F57A7F7E
:10EE1000E7D2F2E7C4F8980E00F58C405030642336
:10EE200090FBF3F308EE103ADFED0B7AB8EEC88AE8
:10EE300028EE278AB0EE480AAEF034F804F69C6358
:10EE400083ED000AB0EE480AAEF082F904F56A6478
:10EE500084ED000AD1E700BF35FA8E3C00F58F50F3
:10EE60000121083012F0DCBEFFF7F8BF10B50446F0
:10EE70000FF05EFB102120460FF000FF70B120461E
:10EE800001F09CFE4FF4001120460FF0F7FE28B968
:10EE900025F0ACFCBDE8104023F04ABF10BD0000D7
:10EEA000FFF7E4BF70B50446254606F079F8204B1D
:10EEB00045F83C3B1F4B6465C4E916341E4BC4E95E
:10EEC00018341E4BA36604F17C0018F0ADFA04F16F
:10EED000980018F0A9FA04F1B40018F0A5FA4FF65A
:10EEE000FF76174BC4F8C830A4F8CC6004F1D0000A
:10EEF00018F09AFA134B14491D60284645F0ECFBB4
:10EF0000A4F87460A4F8906004F59E7018F08CFA70
:10EF100004F5AC7018F088FA04F5BA7018F084FAA9
:10EF2000002384F88831C4F8AC31204670BD00BF9E
:10EF3000149A0C0845E7000849E700084DE7000867
:10EF40000000FFFF78870020D8FA0C0810B50446AF
:10EF500006F026F80A4B23600123A38704F1400042
:10EF600018F062FA04F1500018F05EFA04F1600043
:10EF700018F05AFA04F1700018F056FA204610BD45
:10EF800054A10C082DE9F0432DED028B044685B009
:10EF9000FFF73EFC914B236004F504502C3002F047
:10EFA000C5F804F5045104F5275004311C304FF026
:10EFB000E9F904F5005504F503533833C5F8EC3A84
:10EFC000062385F8F03A04F52C5052F08BFE04F538
:10EFD0002C50283052F086FE04F52D5014305DF090
:10EFE0001BF804F52E503C307CF0BCFE0DF10808F7
:10EFF0007B4BC5F8BC3B4146012304F52F508DF8EF
:10F00000083046F07BF904F52F50343072F08CF95B
:10F01000744BC5F8F43B04F53050B1EE040A0C30E3
:10F0200052F068FE04F53050B1EE040A1C3052F084
:10F0300061FE04F53050B1EE040A2C3052F05AFE55
:10F0400004F53156684BC5F8483C1C3604F5335777
:10F050003046143657F002FAB742F9D10723C5F803
:10F06000E43D0023A5F8E83D4FF4CB7018F020FDF7
:10F07000C5F8E00D04F537502C3085F0D3FB04F5CE
:10F080003850303085F0CEFB584A13681BB904F570
:10F0900031530833136004F5B347554BC5F8483C6A
:10F0A000043704F53950C5F8587E1D307BF02AFF2F
:10F0B000B7EE008A05F5696383ED008A4D4B039333
:10F0C00005F69C654C4B85ED008A0294009304F58F
:10F0D0003A5098E80C004FF40071283015F0B4FB5A
:10F0E00004F54D5028307EF0B3F804F59040B0EEB2
:10F0F000480A443052F086FE04F59040B0EE480ACB
:10F100005C3052F0F7FD04F5904004F580456C301A
:10F1100018F08AF905F67C0300261E605E609E608A
:10F1200005F6880304F591401E605E609E6004F55C
:10F130008F530833C5F89438002385F8B5384FF459
:10F140000041383016F01AF904F59240383066F074
:10F1500075F804F59240703046F0F6F9274BC5F883
:10F16000703904F59340264B2649043004F5934842
:10F17000186008F1240845F0AFFAFF2385F8B43988
:10F1800085F8BC392049404645F0A6FA1F4B1D685A
:10F1900015B11F4886F0D4FB04F593404430C3F802
:10F1A00000804DF079FA1B4B1B48186004F5A4420F
:10F1B00068322B464FF0140C9DB20CFB0501013355
:10F1C000097C0029F8D1154B1D80154BD3F8008020
:10F1D000B8F1000F2AD01348DCE700BFE8480C085C
:10F1E00004410C0840410C08D0460D08988B0020C3
:10F1F00050490C0841E70008D8480C0850410C0859
:10F200001C9100203C530D0830AC0D08A891002043
:10F210008C410C083C88002018890C083A88002092
:10F22000FC870020AD410C08CDCC4C3D04F5A4403A
:10F230001FED030A1A607C3052F05CFD04F5A54016
:10F2400004F5A045143005F0ABFE504BC5F89432E0
:10F2500004F5A540543005F0A3FE04F5A9494C4B34
:10F26000C5F8D43204F5A64009F160091030FFF763
:10F2700019FE484605F094FE464BC5F8E03409F106
:10F280003C0083F0C1FA444BC5F81C3504F5AD4091
:10F29000083005F085FE414BC5F8883604F5AD40D1
:10F2A0004C3005F07DFE3E4BC5F8CC3604F5AE4043
:10F2B00085F808870C3005F073FE3A4BC5F80C371B
:10F2C00004F5AE40483005F06BFE374BC5F84837C3
:10F2D00005F2847304F5AF401E605E609E601C30D2
:10F2E00005F05EFE314BC5F89C3704F5AF40C5F81C
:10F2F000D887603005F054FE2D4BC5F8E03704F593
:10F30000B040283005F04CFE2A4BC5F8283804F5EB
:10F31000B040643005F044FE274BC5F8643805F66C
:10F32000DC0304F5B1401E605E607830FFF70EFE2E
:10F33000384605F035FE214BC5F8843904F5B34055
:10F34000403005F02DFE1E4BA5F8FC8904F5B440B5
:10F35000C5F8C0391030FFF7F9FD1A4BC5F8103A5F
:10F3600004F5B540012385F8993A203005F018FEE0
:10F37000154BC5F8A03A05F52E6520462E606E6047
:10F3800005B0BDEC028BBDE8F08300BF64970C08AC
:10F3900000980C08B09A0C08389B0C08DC9B0C08F1
:10F3A000749C0C080C9D0C089C9D0C08349E0C0849
:10F3B000BC9E0C084C9F0C08E49F0C0884A20C080F
:10F3C00018A40C08E8A10C08D4A40C0838B5054B07
:10F3D0001C6823680A461D68034B01462046A8475F
:10F3E000002038BDF8850020082B002010B585F0DE
:10F3F000E3FD064C064B18602046FFF7C3FD204690
:10F40000044A0549BDE81040ADF026BC082B002099
:10F41000F885002044E5002081E7000801207047BE
:10F4200090F878308B4286BF00EB8100C06F0020DF
:10F430007047000090F878308B4286BF00EB810067
:10F44000C06F002070470000FA207047014B93F80E
:10F45000BA007047084B0020034BD3F88C0E431EB4
:10F4600058425841704700BF084B0020034BD3F867
:10F470008C0E831E58425841704700BF084B002035
:10F48000034BD3F87C0E08B179F03CBC01487047BF
:10F49000084B00203C490C0870B58168C268474D94
:10F4A00041F4E053836042F4E053C36003690446CF
:10F4B00043F4E050206195F84D0E400710D541F41B
:10F4C0008E3142F48E32A160E26095F84D2E5107E4
:10F4D00006D595F8712ED2075CBF43F48E332361B5
:10F4E000A36843F4C043A360D5F8580E03681B68B3
:10F4F00098470238192816D8DFE800F0570D0D0D8F
:10F500000D0D150D1515155715570D0D0D0D570D25
:10F5100057151515150DD4E9032342F4C042E260D6
:10F5200043F4C0432361264B1E6846B1192130467F
:10F5300046F0A8FB18B1A36843F48073A36095F864
:10F54000F43ADB070DD5E36843F48073E36046B11A
:10F550001921304646F0CEFB18B1236943F480737D
:10F560002361184B93F85C32013B012B0BD8D4E993
:10F57000022343F48003E360236942F4800243F4EE
:10F580008003A2602361A36843F08043A360E36823
:10F5900043F08043E360D5F87C3E93F8C5301BB957
:10F5A000236943F08043236170BDE36843F4005353
:10F5B000E360236943F40053B4E700BF084B002025
:10F5C00048880020087B002013B54FF45070CDE927
:10F5D000002118F063FA044628B1DDE9002159F052
:10F5E00017FA024B2360204602B010BD944B0C0862
:10F5F00000207047704700000320704708207047C4
:10F6000010B5154CD4F8580E03681B6898470728A6
:10F610001CD8032834BF10231823D4F87C2E43F0C1
:10F62000400022B192F8CF200AB143F0C00040F070
:10F63000010010BD0B280DD8DFE800F006060C060F
:10F640000C060C060C0C0C061823E6E71038C3B2A7
:10F650000B2BEFD91023E0E7084B0020014B93F868
:10F66000BC007047084B0020034B93F9740100382D
:10F6700018BF0120704700BF084B0020014B93F9D1
:10F68000BE007047084B0020704700007047000024
:10F6900038B5C5780B46352D044628BF35253522AB
:10F6A00000211846B0F038F82A4604F10C01BDE8F4
:10F6B0003840AFF0E7BF00001FB5184C94F84E1F5C
:10F6C00004F5606010F064FB78B194F84E1F04F507
:10F6D000606010F05FFB40B194F84E1F04F560606D
:10F6E00004B0BDE8104010F057BB00230193029313
:10F6F000039312F0FFFA01A912F01EF920B101A83C
:10F7000029F08AFB04B010BD1EF004FF90F8B0325F
:10F71000B02202FB030090ED2B0AF3E7083B002028
:10F7200008B50D4BD3F87C0EA8B1443052F058FB0D
:10F73000034693ED000ADFED090A9E20B7EE001A9A
:10F7400025F074FDDFED067A20EE270ABDEEC00A33
:10F7500010EE103A18B208BD084B0020000000005F
:10F760000000C8422DE9F04FDFF8D880344F8DB04B
:10F770000446042508F5005617F8019BB8F9143122
:10F7800009F1FF3A43FA0AF3D90742D5207C53F036
:10F7900011FE8346207C54F01BFD00F121039B45A4
:10F7A00005D2207C0DB0BDE8F04F53F07FB8BAF120
:10F7B000030F2ED8DFE80AF00234393ED6F8980855
:10F7C00003689B68984700F198035A69D3F800A032
:10F7D000D3F804E0D8681969D3F818C008925A6AB7
:10F7E0001B6ACDF82520CDF8293062222123CDE9EE
:10F7F000003206900791207CCDF80CA0192303AAB3
:10F80000C221CDF810E0CDF814C08DF8249053F04B
:10F810003BFE013D15F0FF05AED10DB0BDE8F08F08
:10F82000D6F898080368DB68CCE7D6F89808036830
:10F830001B69C7E7D6F8A03803F52D73C5E700BFED
:10F84000684C0C08084B002013B50446074801918A
:10F8500008F074FA30B90199204602B0BDE81040B2
:10F8600054F0DCBE042002B010BD00BF187E0020A2
:10F87000014808F0B9B800BF187E002058F05ABA05
:10F8800010B588B0044655F08BFF0C4BD3F87C0EB6
:10F8900038B90B4A0621204608B0BDE8104055F0A3
:10F8A00067BF69461E2279F031FA064A6B46062187
:10F8B000204655F05DFF08B010BD00BF084B00208A
:10F8C00088490C081A950C08034A92F8C839013384
:10F8D00082F8C83955F032B9084B002007B5084600
:10F8E000019117F095FE38B10448019902F0A6FC89
:10F8F000002003B05DF804FB0420FAE7FC8500203B
:10F90000014803F017B800BF082B0020014802F09F
:10F91000BFBF00BF082B0020162A10B40C4605D02C
:10F92000542A03D05DF8044B54F096BE0323237091
:10F9300001205DF8044B704710B5074B93F9C429BB
:10F9400040F6CD3440F6CD13002A08BF1C4655F0D2
:10F9500029F8204310BD00BF086B002010B50446F5
:10F9600018F0A2F8204610BD10B50C4C94F94C3E8E
:10F97000002B0FDBD4F8580E03685B6C984758B91E
:10F98000D4F8580E03681B6C984700280CBF02205F
:10F99000032010BD0120FCE70420FAE7084B0020FB
:10F9A00010B44C69012C05D101465DF8044B0348A5
:10F9B00002F0F4BF5DF8044B55F0DAB8082B0020D4
:10F9C0002DE9F341B1F90430002B06460C461546EB
:10F9D00035DB4FF00008CDE900281A4FB1F90220BD
:10F9E0009FED190AD7F8CC194FF47A7358F0FCFB45
:10F9F0000123CDE900539FED140AB4F90020D7F894
:10FA0000D0194FF47A73304658F0EEFB9FED0F0A91
:10FA1000B4F90420D7F8D41943463046CDE900584C
:10FA200058F0E2FBCDE900589FED070AB4F9062033
:10FA3000D7F8D8194FF47A73304658F0D5FB02B096
:10FA4000BDE8F081084B00200000FA4400007A4431
:10FA5000044B187820B9044B93F84E0EC0F3801075
:10FA6000704700BF4C870020084B0020094B93F8DB
:10FA7000652362B9A3F5805393F8712E920606D1DF
:10FA800093F94C3E002BACBF0420032070470520A7
:10FA9000704700BF085B002008B5074B93F9083199
:10FAA000032B03D0BDE8084055F0DABE034A02211B
:10FAB00055F05EFE042008BD084B0020A0490C084C
:10FAC000094BD3F87821920701D454F0B7BD03F560
:10FAD000005303F5076393ED000ADFED047AB8EEF7
:10FAE000C00A20EE270A7047084B00200AD7233CA3
:10FAF00010B594B0044603A817F096FC1C4BD3F83D
:10FB0000580E036803A9DB6C984778B3002103A85B
:10FB100017F054FD50B3247C85F044FF059BDDEDC8
:10FB2000047A0893069B09930023F8EEE77A9FED89
:10FB3000117A0B930C930D930E930F9310931193D3
:10FB400012934FF6F853ADF84C300023962267EE2F
:10FB5000877A8DF84E303323CDE90032079007AA1B
:10FB600057212046CDED0A7A53F08EFC14B010BD1B
:10FB7000084B00200AD7233C30B52DED0A8B774C7B
:10FB80000546D4F8580E036899B05B6A9847002878
:10FB90005BD004F54054D4F8D837062B00F2C98066
:10FBA000DFE803F00404045788AB53006C489FED72
:10FBB0006D8A0AF02DFA9FED6C0A0168426883682D
:10FBC0000D930BA80B910C9228F028FDF0EE489AAB
:10FBD000B0EE40CAF0EE60BAB0EE419AB0EE48AA7C
:10FBE000F0EE488AF0EE48AAB0EE48BA40F6F85473
:10FBF0002D7C85F0D7FE00231593169301238C22CC
:10FC00008DF85E303323CDE900320B90B1EE499A86
:10FC1000F1EE688AB1EE488A0BAA552128468DED8F
:10FC20000CCACDED0DBA8DED0E9A8DED0FBACDED5E
:10FC300010AACDED118A8DED12AACDED139A8DED9E
:10FC4000148AADF85C4053F01FFC19B0BDEC0A8B70
:10FC500030BD43480AF0DCF99FED430A0168426871
:10FC600083680D930BA80B910C9228F0D7FC3C48AD
:10FC7000F0EE60BAB0EE419AB0EE40CA0AF0CCF9AC
:10FC80009FED390A28F0CAFC3548B0EE40BAF0EED4
:10FC900060AAF0EE418A0AF0C3F99FED330A28F01A
:10FCA000BDFC4FF44064B0EE40AAF0EE609AB0EEB6
:10FCB000418A9DE72A489FED2B9A0AF0ADF99FED06
:10FCC0002A0A28F0ABFC2648B0EE40BAF0EE60AA53
:10FCD000F0EE418A0AF0A4F99FED230A28F09EFC79
:10FCE000F0EE49BAB0EE40AAF0EE609AB0EE418A6A
:10FCF000B0EE49CA40F607447AE71948DFED198AA1
:10FD00000AF08EF99FED180A28F088FCF0EE68AA38
:10FD1000B0EE40AAF0EE609AB0EE418AB0EE68BA5A
:10FD2000B0EE689AF0EE68BAB0EE68CA40F63F44AA
:10FD30005EE79FED0C8A0024F0EE489AB0EE48AAE8
:10FD4000F0EE488AF0EE48AAB0EE48BAB0EE489A13
:10FD5000F0EE48BAB0EE48CA4AE700BF084B0020B0
:10FD6000A4820020000000000AD7233C2DE9F041C6
:10FD70002DED068B3E4D95F84D3E99068CB0044610
:10FD800071D505F500579FED3B0AD7F89808DFEDD0
:10FD90003A8A483028F042FC8DED041A21EE281AE8
:10FDA000D5F8586ECDED030ABDEEC11A8DED020AED
:10FDB00011EE103A1DB2336894F810801B6D304676
:10FDC00020EEA89A60EE289A984707EE900AF8EE7F
:10FDD000E77A304667EEA87AFDEEE77A17EE903ABA
:10FDE0001CB233685B6D984707EE900AB8EE678ADD
:10FDF000DFED227AD7F8A03828EE288A986893EDAC
:10FE0000D3AAB4EEE78AF1EE10FA58BFB0EE678AD3
:10FE100077F0DCFE336830469B6DF0EE40AA9847E1
:10FE2000BCEEC88A00233AEE6AAA089318EE103A8C
:10FE3000B7222AEE28AA20EE280AADF82C301A2381
:10FE4000CDE900323E2105AA4046CDED059A8DED63
:10FE5000069A8DED07AA8DED090AADF82850ADF888
:10FE60002A4053F011FB0CB0BDEC068BBDE8F081CD
:10FE7000084B00209F0CB3450AD7233C00FF7F4767
:10FE80002DE9F04F2DED028B194B047CD3F89838F7
:10FE90008DB0D3F860805F6E9E6EDD6E93ED1C8A30
:10FEA000D3F874B0D3F878A0D3F8B89085F07AFD81
:10FEB00000238DF82C3016222523CDE90032029044
:10FEC00002AA532120468DED078ACDF820B0CDF847
:10FED00024A0CDF82890CDF80C80049705960695BF
:10FEE00053F0D2FA0DB0BDEC028BBDE8F08F00BF2D
:10FEF000086B0020054BD3F87C3E2BB193F8CE0065
:10FF0000002808BF0220704702207047084B0020DD
:10FF100008B5034BD3F8580E03681B68984708BD13
:10FF2000084B0020024B93F84D0EC0F34010704771
:10FF3000084B002070B52C4E2DED028B0546D6F8EF
:10FF4000580E91ED018A036886B05B6A0C469847AB
:10FF500050B9BDEEC88A18EE103ADB0704D402206F
:10FF600006B0BDEC028B70BDD4E9040126F0FEF9A9
:10FF70000028F4D002A817F057FA02AA2146284612
:10FF800058F0A4F80028EAD0184902A817F04CFB52
:10FF900003460028E3D1DFED160A00900246B0EEDA
:10FFA000600A144802A909F06FFED8B1D6F8580EBD
:10FFB00003685B6A9847044608B10020D0E70E4802
:10FFC0000222042105F062FB60B1DFED090A094855
:10FFD00000942346B0EE600A224602A909F054FEBE
:10FFE0000028EAD10420BBE7084B002074730020EE
:10FFF00000000000A4820020082B002008B591F822
:020000040801F1
:100000002030032B1CD1D1ED027A9FED0E7A91EDB9
:10001000060A0D4BF0EEE77AF4EEC77ADFED0B7AC5
:10002000D3F8580EF1EE10FA4CBF0121002120EE5A
:10003000270A0FF02BF9002814BF0020042008BD68
:100040000220FCE700000034084B00200000C842FA
:1000500010B52DED028BD1ED007AF5EEC07AF1EE00
:1000600010FA82B00C4604DA042002B0BDEC028B18
:1000700010BD9FED197AF4EEC77AF1EE10FAF3D8BD
:1000800091ED030A9FED158AF0EEC07AF4EEC87A7E
:10009000F1EE10FA19D5D4ED037A1148D4ED010A26
:1000A00094ED000AF4EEC87AD4ED027AFDEEE77A18
:1000B000F1EE10FACDED017A9DF90410ACBF0122EA
:1000C000002202F029F80020CFE7F7EE000A24F022
:1000D000A9FF0028C8D0DEE70000B44300000034C8
:1000E000FC85002091ED010AB5EEC00AF1EE10FA90
:1000F00008B501DC042008BD9FED107A104BD1ED4E
:10010000007AD3F8580E20EE070A9FED0E7A0368A6
:10011000F4EEC77AF1EE10FA05DD5B6E9847002821
:10012000E8D00020E7E79FED087AF4EEC77AF1EE19
:1001300010FACCBF1B6EDB6DF0E700BF0000C842B9
:10014000084B00209A9939403333F33F08B50B48E8
:100150000222032105F09AFA70B108480121FEF746
:100160001FF8074890F85033012B03D000F5537067
:100170002BF0A2FB002000E0042008BD082B00208B
:10018000087B002010B5D1ED007AFCEEE77A17EE7F
:10019000903A9CB2012C02D0022C06D04CB90648F1
:1001A00021465EF0C3FB002010BD044803F0D8F9DF
:1001B000F9E70420F8E700BF8C740020082B00202A
:1001C0001FB5D1ED017A0B7CFCEEE77ACDED027A1A
:1001D000D1ED007A0093FCEEE77AD1ED030ACDED84
:1001E000037A91ED020A9DF808309DF80C20014633
:1001F00002480DF029FD05B05DF804FB082B002036
:1002000010B50A4C94F8713EDB070CD4022205218C
:10021000A4F5005005F03AFA28B902221146A4F5D7
:10022000005005F033FA002010BD00BF084B00203D
:1002300010B5D1ED007AFCEEE77A044617EE903A5D
:1002400013F0FF030FD10F4BD3F8580E03681B6F49
:10025000984708B1002010BD0B4A2046062155F0F2
:1002600087FA0420F7E7012B09D1064BD3F8580E83
:1002700003685B6F98470028ECD1044AEDE7022041
:10028000E9E700BF084B0020C4490C08D4490C081A
:100290009FED0B7A01F10C03F1EC017AF4EE677A31
:1002A000F1EE10FA0AD6F0EEE77AF4EEC77AF1EE44
:1002B00010FA03DC9942EFD101207047002070470B
:1002C00000007A4430B52DED028B8DB00023054639
:1002D00003930493059311F00DFD03A911F02CFB7A
:1002E00058B311F007FD00F5587393E8070006AC0A
:1002F00084E80700DDED060A9DED070A2D7CF1EE8E
:10030000600AB1EE400AACF0EFFF2046B0EE408A42
:1003100028F082FDDFED0B7A089B0B93012228EE7B
:10032000278A0C23CDE90032A82109AA28468DEDA1
:10033000098A8DED0A0A53F0A7F80DB0BDEC028BC7
:1003400030BD00BFE02E6542272938B5054611D0E3
:1003500008D819290CD0242919D02846BDE83840DE
:1003600058F09EB83D2903D0A1F13F03012BF4D8EA
:10037000012405E0122152F0ABFA044610B9002422
:10038000204638BD297C07484BF064FCF8E70C2177
:1003900052F09EFA04460028F1D02846FFF792FF5B
:1003A000EEE700BFCC74002038B5194C94F8713ECC
:1003B000DB070D460AD4D4F87C3E93F8CF303BB926
:1003C0000122114604F6BC30FDF750FD002038BD77
:1003D00094F94C3E002B4FF0020212DA0521A4F5ED
:1003E000005005F053F90028F0D095ED000ADFED3C
:1003F000097AD4F8580E20EE270A01210EF046FFA4
:10040000E4E70921A4F5005005F040F9DEE700BF5C
:10041000084B00200000C84210B5214C94F8713EF2
:10042000DB070ED4D4F87C3E93F8CF304BB194F96F
:100430004C3E002B07DA0122082104F6BC30FDF700
:10044000C7FD002010BDD1ED007A9FED167AF0EEC9
:10045000E77AF4EEC77AF1EE10FA0BD512480222D1
:10046000112105F013F9A0B9022211460E4805F03A
:100470000DF9E6E7D4F8580E03681B68984704287E
:10048000DFD0D4F8580E03681B6898471428E5D1CC
:10049000D7E7064840F6C41108F058F9D1E700BF85
:1004A000084B002000000034082B00209081002021
:1004B00070B58B8BC02B05460C4643D020D8552BEE
:1004C00069D013D8162B09D8102B09D9113B052B4D
:1004D00006D8DFE803F05505055D603F542B39D0A1
:1004E00021462846BDE8704059F04CB9B22B25D0C2
:1004F000BD2B53D0732BF3D1BDE87040FFF7A8BDDF
:10050000B3F5967F38D009D8D02B29D0D12B1DD068
:10051000C12BE5D1BDE87040FFF78ABE4AF2124612
:10052000B34225D04AF21346B3421DD04AF21146D7
:10053000B342D5D1BDE87040FFF762BEBDE8704060
:10054000FFF7D0BDBDE87040FFF7F4BCBDE87040D8
:10055000FFF736BE21462846BDE87040FFF74EBD86
:10056000BDE87040FFF70EBEBDE87040FFF754BF16
:10057000BDE87040FFF718BFBDE87040FFF7E6BD6B
:1005800002220521094805F081F860B9042070BDF8
:1005900002220621F6E702220921F3E7022104489C
:1005A00006F054F9F1E70020F1E700BF082B002026
:1005B000187E002008B591ED007AF6EE007AB4EED0
:1005C000E77AF1EE10FA06DD044801220521FDF775
:1005D000FFFC002008BD0420FCE700BFC45600203B
:1005E0002DE9F0472DED028B8A7A4B7A43EA0223FC
:1005F000CA7A43EA0243562BA2B005460C4600F0E5
:10060000D1810DD8522B1CD0542B00F0A98021464B
:10061000284622B0BDEC028BBDE8F04758F05EBE24
:1006200003F18073863B23F07F43012BEFD80A460A
:10063000017CB74822B0BDEC028BBDE8F0474BF01F
:1006400003BCCD78272D28BF27252722002114A8F9
:10065000AFF062F82A4604F10C0114A8AFF012F8CA
:10066000AC4BD3F8580E03685B6A9847002842D019
:100670009DF876506F063ED400244FF07E532E0630
:10068000109313941294119428D510A827F0A6FD66
:10069000A14809F0B7F89DED1C0A064600282FD0A6
:1006A00040F2DB40B7EE001AFFEE000A24F0BEFD78
:1006B0000C940D940E94EC075CBF199B0C93A80747
:1006C0005CBF1A9B0D9369075CBF1B9B0E939248FE
:1006D00033460CAA10A909F09DF80CE0159B109365
:1006E000169B1193179B129310A8189B139327F036
:1006F0007BFD0028CCD122B0BDEC028BBDE8F08799
:10070000DFED8B0A40F2DE40B7EE001A24F08EFDDA
:10071000F6EE000AB0EE408A24F084FCE8B9B6EEAA
:10072000000A7E4BB4EEC08AF1EE10FAD3F8A4387A
:1007300008DD38EE400A30EE008A93ED070A28EE15
:10074000000AB5E730EE480AD3ED087A30EE000A29
:10075000F0EEE77A27EEC00AAAE79FED750AA7E751
:10076000204614A9FEF794FF6A4BD3F8580E03688D
:100770005B6A98470028BED09DF88430012B07D0D3
:10078000DA1F022A04D90121634808F0D9FFB2E731
:10079000BDF88040A20504F4E07601D5002EAAD071
:1007A0004FF0000914F00707CDF82490CDF82890F9
:1007B000CDF82C9027D19FED5A6A9DED167ADDED8C
:1007C000177ADDED156A27EE067A67EEC67A66EED1
:1007D000866A083B012BCDED096A8DED0A7ACDEDD5
:1007E0000B7A04D84F480AAA09A9FDF74DFE9DF8D7
:1007F0008430073B022B06D84B4877F0E3F90146DB
:1008000009A827F02BFF14F03808CDF83090CDF868
:100810003490CDF838901ED1DDED1A7A189B0C93E8
:10082000F1EE677A199B0D930CA92846CDED0E7A4F
:10083000FFF72EFD0028A6D09FED390A0CA827F05F
:1008400041FF9DF88430083B012B04D835480DAAA0
:100850000CA9FDF719FECDF84090CDF84490CDF8E5
:100860004890EEB99FED2E6A9DED1C7ADDED1D7A64
:10087000DDED1B6A9DF8843027EE067A67EEC67AB6
:1008800066EE866A083B012BCDED106A8DED117A7C
:10089000CDED127A04D8234811AA10A9FDF7F4FD72
:1008A00014F4806246D1DFED217A9DED1E0A9DF899
:1008B000841020EE270ADFED1A7A0839012920EE8C
:1008C000270A8CBF0021012114F4006305BFDFED6E
:1008D000177ADDED1F0ADFED160A60EEA70A04BFE6
:1008E000DFED0F7A60EEA70A47BBB8F1000F49D1E0
:1008F000B3FA83F3B2FA82F25B09520902910193CF
:10090000009210AB0CAA09A9034809F073F8F2E6AB
:10091000CC740020084B0020A4820020086B00202B
:100920000000C842082B002084730020E02E65429E
:10093000000000001FED020A0021C5E7B8F1000F1A
:100940000FD1B3FA83F35B0901200093B2FA82F36B
:10095000CDE901105B0910AA0CA9934809F0E0FA4F
:10096000C9E6002E7FF40FAF0120B3FA83F3B2FA89
:1009700082F2CDE900105B09520910A98A4809F0FA
:1009800077FAB8E6002E3FF4FEAEB3FA83F3B2FA7C
:1009900082F2CDE900175B09520909A9824809F0E2
:1009A000ABF8A8E6204614A9FEF772FE7F4BD3F8F9
:1009B000580E03685B6A984700283FF49CAEBDF868
:1009C0008040A30504F4E07803D5B8F1000F3FF4AC
:1009D00092AE0CAF04F00709384616F025FDB9F1C8
:1009E000000F25D1DDE9150125F0C0FC00283FF4FA
:1009F000CAAE9DF8841009AA284657F051FB00287A
:100A00003FF4C1AEDDED177A9FED697A099B009343
:100A100067EE877A10AEFDEEE77ADDE9151217EE84
:100A2000903A304616F020FD96E80F0087E80F0058
:100A3000002614F0380A06960796089615D1DDEDC3
:100A40001A7A189B0693F1EE677A199B079306A909
:100A50002846CDED087AFFF71BFC00283FF493AE43
:100A60009FED530A06A827F02DFE09960A960B96CD
:100A7000B8F1000F13D19FED4E6A9DED1C7ADDEDAC
:100A80001D7ADDED1B6A27EE067A67EEC67A66EE02
:100A9000866A8DED0A7ACDED096ACDED0B7A14F4F4
:100AA000806505BFDFED437A9DED1E0A9FED420A8A
:100AB00020EE270A04BFDFED3E7A20EE270A14F469
:100AC000006405BFDFED3B7ADDED1F0ADFED3A0A7A
:100AD00060EEA70A04BFDFED367A60EEA70AB9F12F
:100AE000000F31D1BAF1000F4DD13846CDED050AD6
:100AF0008DED040A16F0C8FC03289DED040ADDED17
:100B0000050A3FF440AE10A93846CDED050A8DED3B
:100B1000040A10961196129616F034FE00283FF43F
:100B200032AEB4FA84F46409B5FA85F3DDED050A52
:100B30009DED040ACDF804A000945B0906AA10A953
:100B4000194808F0C7FFD6E5BAF1000F0CD1012310
:100B5000B4FA84F4CDE901A36409B5FA85F30094ED
:100B60005B0909AA06A9F8E6B8F1000F7FF40BAEFD
:100B70000123CDE90083B5FA85F2B4FA84F35B0969
:100B8000520909A9FAE6B8F1000F3FF4FCADB4FA36
:100B900084F3B5FA85F2CDF800905B095209394625
:100BA000014809F071F8A6E5A4820020084B002056
:100BB0000000C842E02E6542000000002DE9F0412F
:100BC0002DED028B044690B000F5934000230122E6
:100BD0006946443000934BF0ABFE08B94D4B00938F
:100BE00004F50056DFED4C8AD6F8580E03685B69B1
:100BF000984704F58048002840F08880D8F8A0384D
:100C0000D3EDD97A93EDD38AFDEEE77A28EE288AE0
:100C100017EE903A1DB204F52D57043701A9384656
:100C20000DF0DEFE18B94EF08FFC3A4B01933722DF
:100C3000002102A8AEF070FDA3238DF808309523A3
:100C40008DF8093084F0B6FED8F89838CDF80B004E
:100C5000D6F87C0ED3F8B820D3F8BC30CDF80F10FE
:100C60004430CDF81320CDF8173051F0B9F80346D1
:100C7000DFED2A0A93ED000AB7EE001A9E2024F059
:100C8000D5FA10EE103AD6F87C0ECDF81B3003687A
:100C9000DB68984710EE103A04F59046CDF81F3007
:100CA0007C3618EE103A3046CDF8233076F08EFFC1
:100CB00020EE280A384610EE103ACDF82730D8F842
:100CC0004038CDF82B30019BCDF82F300DF0AEFE23
:100CD00010EE103A3046CDF83330009BCDF8373067
:100CE000ADF83B5076F07EFFBDEEC00A04F527500C
:100CF00010EE103A372202A91C30ADF83D304DF00D
:100D00002BFC10B0BDEC028BBDE8F0819FED038A97
:100D1000002580E72292CA7F0AD7233C000000000A
:100D200070B500F580460446D6F898089FED170A7E
:100D30008AB0483027F072FC0AAACDED080A8DED82
:100D4000091A8DED070A12E9070001AD85E80700D1
:100D500004AB9DED030A83E8070024F0FBF904F5DA
:100D60008F5004F50054294608308DED030A0FF02A
:100D7000CDF8D6F8A038D6F89828D4F87C1ED4F848
:100D8000B80B0FF011FA0AB070BD00BF9F0CB3454D
:100D900070B54FF4805105460DF070FF00284FD01C
:100DA00005F5804605F52754D6F8980803689B6832
:100DB00098471C3400F19802652120464DF0C8F98F
:100DC000D6F898080368DB689847662100F1980216
:100DD00020464DF0BDF9D6F8980803681B6998477E
:100DE000672100F1980220464DF0B2F9D6F8A0280C
:100DF0006821204602F52D724DF0AAF920212846DF
:100E00000DF03CFFE0B105F50053D3F8580E036830
:100E10001B69984778B1D6F8A028204690326A21FD
:100E20004DF096F9D6F8A0282046BC32BDE87040B7
:100E30006B214DF08DB9284609F028FE0028EAD133
:100E400070BD000008B510F055FFBDE8084010F077
:100E500025BD00007FB50E464FF6FF7104461546CE
:100E60000DF00CFFE8B1102200216846AEF054FCF2
:100E7000A3238DF8003095238DF8013003238DF8DE
:100E8000023084F097FDCDF8030004F52750CDF82B
:100E90000710102269461C308DF80B6003954DF049
:100EA000DBFB04B070BD00007FB50E464FF6FF714E
:100EB000044615460DF0E2FEE8B110220021684616
:100EC000AEF02AFCA3238DF8003095238DF8013075
:100ED00004238DF8023084F06DFDCDF8030004F595
:100EE0002750CDF80710102269461C308DF80B6092
:100EF00003954DF0B1FB04B070BD000030B52DED91
:100F0000048B87B004460D46182200216846B0EED7
:100F1000409AF0EE608AB0EE418AAEF0FDFBA3236A
:100F20008DF8003095238DF8013006238DF80230BE
:100F300084F040FDCDF8030004F52750CDF80710EC
:100F4000182269461C308DF80B508DED039ACDEDBB
:100F5000048A8DED058A4DF0FFFA07B0BDEC048BD5
:100F600030BD000010B54FF4801104460DF086FE30
:100F700030B104F58F500830BDE810400FF0B6B81E
:100F800010BD00002DE9F0438FB014460546894698
:100F90003122002101A8DDE916769846AEF0BCFBAF
:100FA000A3238DF8043095238DF8053008238DF8A0
:100FB000063084F0FFFC2368049363680593A368FC
:100FC00006933B68CDF81D307B68CDF82130BB68B7
:100FD000CDF825303368CDF80700CDF8293005F578
:100FE00027507368CDF80B10CDF82D303122B3683F
:100FF0008DF80F9001A91C308DF81C80CDF8313090
:101000004DF0AAFA0FB0BDE8F083000070B52DEDE9
:10101000068B8CB0144605460E462C22002101A8F2
:10102000B0EE409AF0EE608AB0EE418AB0EE61AA6E
:10103000F0EE429AAEF070FBA3238DF804309523B6
:101040008DF805300B238DF8063084F0B3FCDFED0E
:101050001A7A94ED007ACDF8070027EE277A29EE68
:10106000279A8DED077A94ED017ACDF80B1027EED3
:10107000277A68EEA78A8DED087A94ED027A8DF8CA
:101080000F6028EE278A05F5275067EE277A2C2275
:1010900001A91C308DED049ACDED058A8DED068AEF
:1010A000CDED097A8DED0AAACDED0B9A4DF054FAEB
:1010B0000CB0BDEC068B70BDE02E654270B5144BD4
:1010C000044688B004F52755D3F87C0E69461C35D4
:1010D00004F500561E2277F019FE6A460D4928468F
:1010E0004DF0D6FBD6F8580E03681B68984796F863
:1010F0007420014628464DF0EFFB04F58F50083070
:1011000011F034F804F588701BF012FF08B070BDC0
:10111000084B00201A950C0800F527500249982228
:101120001C304DF0FBBE00BF886F0C082A4B2B4AC9
:1011300070B54360002343618361C361C363284B7F
:10114000426303644FF08042264B4364044682634B
:10115000583059F003F8244E244BA36578256019C4
:1011600059F07AF966512C35B5F54E7FF7D104F573
:101170004E705AF025FD002104F5E8607AF0E2F99E
:101180001B4BC4F8F8379FED1B1ADFED1B0A9FEDD0
:101190001B0A04F60C0070F033FD9FED161A9FED4C
:1011A000180AF0EE410A04F6240070F029FD9FEDC4
:1011B000111A9FED130AF0EE410A04F63C0070F09C
:1011C0001FFD20460F4943F087FA20460E4943F0A1
:1011D00083FA204670BD00BF803700200000C84160
:1011E0000AD7233C0000E04084920C0898920C0837
:1011F00024800020000000009A99993E0000B4432A
:1012000000804A4328860C0888880C0870B54C4D2D
:101210004C49ADF50E7DD02206465AA8AEF032FA02
:101220000FCD0EAC0FC40FCD0FC40FCD0FC495E87A
:101230000F0084E80F0000245AAB18190021B7EE04
:10124000000A103442F06CFDD02CF5D13E4B0FCB90
:1012500002AC84E80F0001A9204642F015FD90B1D0
:101260009DF90430DFED396AE06807EE103AB8EE18
:10127000C77AF0EE007AE7EE267AB7EE000A80EE43
:10128000270A43F0C5FD00240EAB181900211034C5
:10129000B7EE000A42F044FD402CF5D12C499022D3
:1012A00036A8AEF0EFF90022092136A842F0E4FD9D
:1012B00096F9AC69D6B9274D0FCD1EAC0FC40FCD32
:1012C0000FC40FCD0FC495E80F0084E80F0032461D
:1012D00004211EA842F0D0FD9FED1F0A1F4843F0D5
:1012E00097FD1F48B7EE000A43F092FD1D4C9FED9D
:1012F0001E0A0FCC06AD0FC594E80F0085E80F005D
:10130000002106A842F00CFD9FED170A0021284697
:1013100042F006FD04F1100160221EA8AEF0B2F901
:1013200000241EAB18190021B7EE000A103442F059
:10133000F7FC602CF5D15AF069FA0DF50E7D70BD01
:101340006C3A0C089C390C08AC3A0C08CDCCCC3D5E
:10135000BC3A0C084C3B0C0800000000D0840C0880
:10136000DF840C088C3B0C08000034422DE9F04768
:1013700090B00DF106011D205AF0BAFB002800F0D4
:101380009E809DF80630614A0133DBB211210BA823
:101390008DF8063083F0CAFB00220DF107010BA87F
:1013A00042F016FA9DF80630594A112105460BA85D
:1013B00083F0BCFB00220DF107010BA842F008FAF4
:1013C0009DF80630534A112106460BA883F0AEFB68
:1013D00000220DF107010BA842F0FAF99DF8063042
:1013E0004D4A03F03F03112107460BA883F09EFBF3
:1013F00000220DF107010BA842F0EAF98046002D0A
:101400005DD0002E5BD0002F59D0002857D0284641
:1014100042F0EAFB002852D1304642F0E5FB0028BA
:101420004DD1384642F0E0FB002848D1404642F01A
:10143000DBFB002843D1394C94E80F000DF10C0C74
:1014400010348CE80F0094E80F000DF11C0989E8B6
:101450000F0002A9604642F017FC98B3BDF808409F
:1014600002A9484642F010FC00284AD0BDF80830D6
:1014700054BB23B340F2E2449C420FFA84FA0FFAC1
:1014800083F927D80DF10A013046ADF80A9043F0F0
:10149000A5FF0DF10A012846ADF80AA043F09EFF12
:1014A0000DF10A013846ADF80AA043F097FF00237A
:1014B0000DF10A014046ADF80A3043F0A9FF10B023
:1014C000BDE8F0870024CBE740F2D662002B08BFCE
:1014D0001346D1E70DF10A013046ADF80AA043F0FA
:1014E0007DFF0DF10A012846ADF80A9043F076FF22
:1014F0000DF10A013846ADF80A9043F06FFF012361
:10150000D6E7002CDBD040F2D663B5E7F0840C08B8
:10151000FC840C0808850C0815850C080C3C0C088C
:10152000F0B53C4B1E680446F06A036804F50255AA
:1015300087B01B68002138359847284643F0A2F948
:1015400028B104F50053B3F9B830782B14D0B06942
:10155000314903681B6898475AF068FC41F026FC43
:10156000782302A92846ADF8083043F037FFB06968
:101570002A4903681B689847782302A92846ADF8D2
:10158000083043F007FF84F001FA054642F04AFFB5
:1015900000220C21224842F06FFC2046FFF7E6FEB5
:1015A00004F50350B7EE000A02210C3042F0BAFCF9
:1015B0000027012304F5FD51CDE9007318314520C2
:1015C000184A3B4642F05CFC04F5045002A92C305A
:1015D00042F0F4F9D8B140F6CC7304F5FB51124A4D
:1015E000BDF80800009301970C2342F049FCB46950
:1015F00023681E6884F0CAF90C49421B2046B04794
:1016000043F070FA0A4A138843F00103138007B0CD
:10161000F0BD00BFF885002028850C084C850C081B
:1016200068850C08B4A60D0850B30D0853850C0846
:101630002C8800200F299DBF2C2303FB01002030A4
:1016400000207047014B93F9FF007047084B0020C2
:10165000024B93F8710E00F001007047084B002018
:10166000044BB3F8C430DB075ABF0069C0F3401025
:1016700000207047084B0020014BD3F8D809704771
:10168000084B002008B503689B68984730B9044BA5
:1016900093F9700EB0FA80F0400908BD0020FCE715
:1016A000084B002038B50D1E2DDB174C94F8F02A9E
:1016B000EBB29A4227D3D4F8EC3A0122595DA4F553
:1016C000005003F0E3FFF0B158F090FE032159F011
:1016D00063FEC0B958F08AFE0D2159F05DFE90B945
:1016E00094F9E430EB40DB075CBF94F9FE10E9406D
:1016F000A4F5005048BF0221BDE8384058BF01F0B2
:101700000101FCF763BD38BD084B0020022A10B56B
:101710000C4605D1BDE810400948012203F0B6BFD0
:10172000084BD3F8580E03681B689847A04205D1B0
:1017300058F05CFEBDE8104058F014BE10BD00BF6C
:10174000082B0020084B002029B1022907D1044BA7
:10175000C3F8501E7047024B0122C3F8502E704749
:10176000084B002031B1022907D1044B012283F834
:10177000542E7047014B83F8541E7047084B0020CD
:1017800010B500F50053DFED186AD3F8D029D3F86F
:10179000CC39B2F90820B3F908309FED147A07EE7E
:1017A000902AF8EEE77A0446C7EEA60A00F58F50B5
:1017B0000121083007EE903AF8EEE77A60EE870AEA
:1017C00087EEA60A20EE070A10F032FB4DF0BCFEB1
:1017D00026214DF051FC04F53150054ABDE810407A
:1017E0000621083050F07ABE0000C84235FA8E3C1F
:1017F00070900C0800F58042002382F8B438044A47
:1018000000F5315013720621024A083050F066BECE
:10181000A58700207C900C08F8B500F580450446AB
:1018200095F8B418002955D02B4B2C4AD3F8580EF4
:10183000904204D1D3F87C3E93F8CF3023B92046B0
:10184000BDE8F840FFF7D6BF254E95F8B57804F50A
:101850000053012093F94C2E3072C7BB002A39DBAC
:1018600085F8B5080139C9B285F8B418D3F8D0297C
:10187000D3F8CC39B2F90820DFED1A6AB3F9083091
:101880009FED197A07EE902AF8EEE77AB1FA81F126
:10189000C7EEA60A04F58F504909083007EE903AC2
:1018A000F8EEE77A60EE870A87EEA60A20EE070ACE
:1018B00010F0BEFA95F8B43863B904F531503372BC
:1018C0000A4ABDE8F8400621083050F007BE002A59
:1018D000C8DAB4E7F8BD00BF084B00208C840020B4
:1018E000A587002000007A4535FA8E3C90900C08C0
:1018F0006D2900F3E380012901DC59F0A3BB8B1EA5
:101900006B2BFAD80FF2040C5CF823F0071B0108CC
:10191000011B0108071B0108071B0108FB18010830
:10192000071B0108FB180108FB180108011B01082F
:10193000FB180108071B0108011B0108011B010816
:10194000FB180108071B0108071B0108071B0108FA
:10195000FB180108FB180108011B0108071B0108FF
:10196000011B0108FB180108011B0108011B0108EC
:10197000FB180108FB180108FB180108FB180108F7
:10198000FB180108011B0108071B0108FB180108CF
:10199000FB180108FB180108071B0108FB180108C8
:1019A000011B0108FB180108FB180108071B0108AF
:1019B000011B0108011B0108071B0108FB18010896
:1019C000071B0108071B0108071B0108FB1801087A
:1019D000FB180108071B0108FB180108FB18010888
:1019E000071B0108071B0108071B0108FB1801085A
:1019F000FB180108071B0108071B0108FB18010859
:101A0000FB180108FB180108FB180108FB18010866
:101A1000FB180108071B0108071B0108071B010829
:101A2000071B0108071B0108071B0108FB18010819
:101A3000011B0108011B0108FB180108FB18010824
:101A4000FB180108FB180108FB180108FB18010826
:101A5000071B0108011B0108FB180108FB180108FE
:101A6000FB180108FB180108FB180108FB18010806
:101A7000FB180108FB180108FB180108FB180108F6
:101A8000FB180108FB180108FB180108FB180108E6
:101A9000071B0108FB180108FB180108FB180108C7
:101AA000FB180108FB180108FB180108FB180108C6
:101AB000FB180108FB180108011B0108A1F197039D
:101AC0000A2B3FF61AAF0A2B3FF617AF0FF2040CA2
